{
  "_format": "hh-sol-artifact-1",
  "contractName": "DSDBenefitNFT",
  "sourceName": "contracts/DSDBenefitNFT.sol",
  "abi": [
    {
      "inputs": [],
      "stateMutability": "nonpayable",
      "type": "constructor"
    },
    {
      "anonymous": false,
      "inputs": [
        {
          "indexed": true,
          "internalType": "address",
          "name": "owner",
          "type": "address"
        },
        {
          "indexed": true,
          "internalType": "address",
          "name": "approved",
          "type": "address"
        },
        {
          "indexed": true,
          "internalType": "uint256",
          "name": "tokenId",
          "type": "uint256"
        }
      ],
      "name": "Approval",
      "type": "event"
    },
    {
      "anonymous": false,
      "inputs": [
        {
          "indexed": true,
          "internalType": "address",
          "name": "owner",
          "type": "address"
        },
        {
          "indexed": true,
          "internalType": "address",
          "name": "operator",
          "type": "address"
        },
        {
          "indexed": false,
          "internalType": "bool",
          "name": "approved",
          "type": "bool"
        }
      ],
      "name": "ApprovalForAll",
      "type": "event"
    },
    {
      "anonymous": false,
      "inputs": [
        {
          "indexed": false,
          "internalType": "uint256",
          "name": "",
          "type": "uint256"
        }
      ],
      "name": "Burn",
      "type": "event"
    },
    {
      "anonymous": false,
      "inputs": [
        {
          "indexed": false,
          "internalType": "string",
          "name": "",
          "type": "string"
        }
      ],
      "name": "ChangeURI",
      "type": "event"
    },
    {
      "anonymous": false,
      "inputs": [
        {
          "indexed": false,
          "internalType": "uint256",
          "name": "",
          "type": "uint256"
        }
      ],
      "name": "Mint",
      "type": "event"
    },
    {
      "anonymous": false,
      "inputs": [
        {
          "indexed": true,
          "internalType": "address",
          "name": "from",
          "type": "address"
        },
        {
          "indexed": true,
          "internalType": "address",
          "name": "to",
          "type": "address"
        },
        {
          "indexed": true,
          "internalType": "uint256",
          "name": "tokenId",
          "type": "uint256"
        }
      ],
      "name": "Transfer",
      "type": "event"
    },
    {
      "inputs": [
        {
          "internalType": "address",
          "name": "to",
          "type": "address"
        },
        {
          "internalType": "uint256",
          "name": "tokenId",
          "type": "uint256"
        }
      ],
      "name": "approve",
      "outputs": [],
      "stateMutability": "nonpayable",
      "type": "function"
    },
    {
      "inputs": [
        {
          "internalType": "address",
          "name": "owner",
          "type": "address"
        }
      ],
      "name": "balanceOf",
      "outputs": [
        {
          "internalType": "uint256",
          "name": "",
          "type": "uint256"
        }
      ],
      "stateMutability": "view",
      "type": "function"
    },
    {
      "inputs": [
        {
          "internalType": "uint256",
          "name": "_id",
          "type": "uint256"
        }
      ],
      "name": "burn",
      "outputs": [],
      "stateMutability": "nonpayable",
      "type": "function"
    },
    {
      "inputs": [],
      "name": "factory",
      "outputs": [
        {
          "internalType": "address",
          "name": "",
          "type": "address"
        }
      ],
      "stateMutability": "view",
      "type": "function"
    },
    {
      "inputs": [
        {
          "internalType": "uint256",
          "name": "tokenId",
          "type": "uint256"
        }
      ],
      "name": "getApproved",
      "outputs": [
        {
          "internalType": "address",
          "name": "",
          "type": "address"
        }
      ],
      "stateMutability": "view",
      "type": "function"
    },
    {
      "inputs": [
        {
          "internalType": "address",
          "name": "_owner",
          "type": "address"
        },
        {
          "internalType": "string",
          "name": "_name",
          "type": "string"
        },
        {
          "internalType": "string",
          "name": "_symbol",
          "type": "string"
        },
        {
          "internalType": "string",
          "name": "_uri",
          "type": "string"
        }
      ],
      "name": "initialize",
      "outputs": [],
      "stateMutability": "nonpayable",
      "type": "function"
    },
    {
      "inputs": [
        {
          "internalType": "address",
          "name": "owner",
          "type": "address"
        },
        {
          "internalType": "address",
          "name": "operator",
          "type": "address"
        }
      ],
      "name": "isApprovedForAll",
      "outputs": [
        {
          "internalType": "bool",
          "name": "",
          "type": "bool"
        }
      ],
      "stateMutability": "view",
      "type": "function"
    },
    {
      "inputs": [
        {
          "internalType": "address",
          "name": "_to",
          "type": "address"
        }
      ],
      "name": "mint",
      "outputs": [],
      "stateMutability": "nonpayable",
      "type": "function"
    },
    {
      "inputs": [],
      "name": "name",
      "outputs": [
        {
          "internalType": "string",
          "name": "",
          "type": "string"
        }
      ],
      "stateMutability": "view",
      "type": "function"
    },
    {
      "inputs": [],
      "name": "owner",
      "outputs": [
        {
          "internalType": "address",
          "name": "",
          "type": "address"
        }
      ],
      "stateMutability": "view",
      "type": "function"
    },
    {
      "inputs": [
        {
          "internalType": "uint256",
          "name": "tokenId",
          "type": "uint256"
        }
      ],
      "name": "ownerOf",
      "outputs": [
        {
          "internalType": "address",
          "name": "",
          "type": "address"
        }
      ],
      "stateMutability": "view",
      "type": "function"
    },
    {
      "inputs": [
        {
          "internalType": "address",
          "name": "from",
          "type": "address"
        },
        {
          "internalType": "address",
          "name": "to",
          "type": "address"
        },
        {
          "internalType": "uint256",
          "name": "tokenId",
          "type": "uint256"
        }
      ],
      "name": "safeTransferFrom",
      "outputs": [],
      "stateMutability": "nonpayable",
      "type": "function"
    },
    {
      "inputs": [
        {
          "internalType": "address",
          "name": "from",
          "type": "address"
        },
        {
          "internalType": "address",
          "name": "to",
          "type": "address"
        },
        {
          "internalType": "uint256",
          "name": "tokenId",
          "type": "uint256"
        },
        {
          "internalType": "bytes",
          "name": "data",
          "type": "bytes"
        }
      ],
      "name": "safeTransferFrom",
      "outputs": [],
      "stateMutability": "nonpayable",
      "type": "function"
    },
    {
      "inputs": [
        {
          "internalType": "address",
          "name": "operator",
          "type": "address"
        },
        {
          "internalType": "bool",
          "name": "approved",
          "type": "bool"
        }
      ],
      "name": "setApprovalForAll",
      "outputs": [],
      "stateMutability": "nonpayable",
      "type": "function"
    },
    {
      "inputs": [
        {
          "internalType": "uint256[]",
          "name": "_ids",
          "type": "uint256[]"
        },
        {
          "internalType": "uint8",
          "name": "_lock",
          "type": "uint8"
        }
      ],
      "name": "setLock",
      "outputs": [],
      "stateMutability": "nonpayable",
      "type": "function"
    },
    {
      "inputs": [
        {
          "internalType": "address",
          "name": "_newAdd",
          "type": "address"
        }
      ],
      "name": "setOwner",
      "outputs": [],
      "stateMutability": "nonpayable",
      "type": "function"
    },
    {
      "inputs": [
        {
          "internalType": "string",
          "name": "_uri",
          "type": "string"
        }
      ],
      "name": "setURI",
      "outputs": [],
      "stateMutability": "nonpayable",
      "type": "function"
    },
    {
      "inputs": [
        {
          "internalType": "bytes4",
          "name": "interfaceId",
          "type": "bytes4"
        }
      ],
      "name": "supportsInterface",
      "outputs": [
        {
          "internalType": "bool",
          "name": "",
          "type": "bool"
        }
      ],
      "stateMutability": "view",
      "type": "function"
    },
    {
      "inputs": [],
      "name": "symbol",
      "outputs": [
        {
          "internalType": "string",
          "name": "",
          "type": "string"
        }
      ],
      "stateMutability": "view",
      "type": "function"
    },
    {
      "inputs": [
        {
          "internalType": "uint256",
          "name": "index",
          "type": "uint256"
        }
      ],
      "name": "tokenByIndex",
      "outputs": [
        {
          "internalType": "uint256",
          "name": "",
          "type": "uint256"
        }
      ],
      "stateMutability": "view",
      "type": "function"
    },
    {
      "inputs": [
        {
          "internalType": "address",
          "name": "owner",
          "type": "address"
        },
        {
          "internalType": "uint256",
          "name": "index",
          "type": "uint256"
        }
      ],
      "name": "tokenOfOwnerByIndex",
      "outputs": [
        {
          "internalType": "uint256",
          "name": "",
          "type": "uint256"
        }
      ],
      "stateMutability": "view",
      "type": "function"
    },
    {
      "inputs": [
        {
          "internalType": "uint256",
          "name": "_id",
          "type": "uint256"
        }
      ],
      "name": "tokenURI",
      "outputs": [
        {
          "internalType": "string",
          "name": "",
          "type": "string"
        }
      ],
      "stateMutability": "view",
      "type": "function"
    },
    {
      "inputs": [],
      "name": "totalSupply",
      "outputs": [
        {
          "internalType": "uint256",
          "name": "",
          "type": "uint256"
        }
      ],
      "stateMutability": "view",
      "type": "function"
    },
    {
      "inputs": [
        {
          "internalType": "address",
          "name": "from",
          "type": "address"
        },
        {
          "internalType": "address",
          "name": "to",
          "type": "address"
        },
        {
          "internalType": "uint256",
          "name": "tokenId",
          "type": "uint256"
        }
      ],
      "name": "transferFrom",
      "outputs": [],
      "stateMutability": "nonpayable",
      "type": "function"
    }
  ],
  "bytecode": "0x608060405234801561001057600080fd5b506001600a60006101000a81548160ff021916908360ff160217905550613cfa8061003c6000396000f3fe608060405234801561001057600080fd5b50600436106101585760003560e01c80634ffb5583116100c357806395d89b411161007c57806395d89b41146103d3578063a22cb465146103f1578063b88d4fde1461040d578063c45a015514610429578063c87b56dd14610447578063e985e9c51461047757610158565b80634ffb5583146103015780635f1e6f6d1461031d5780636352211e146103395780636a6278421461036957806370a08231146103855780638da5cb5b146103b557610158565b806318160ddd1161011557806318160ddd1461022f57806323b872dd1461024d5780632f745c591461026957806342842e0e1461029957806342966c68146102b55780634f6ccce7146102d157610158565b806301ffc9a71461015d57806302fe53051461018d57806306fdde03146101a9578063081812fc146101c7578063095ea7b3146101f757806313af403514610213575b600080fd5b6101776004803603810190610172919061258a565b6104a7565b60405161018491906125d2565b60405180910390f35b6101a760048036038101906101a29190612733565b610521565b005b6101b1610573565b6040516101be91906127fb565b60405180910390f35b6101e160048036038101906101dc9190612853565b610605565b6040516101ee91906128c1565b60405180910390f35b610211600480360381019061020c9190612908565b61064b565b005b61022d60048036038101906102289190612948565b610762565b005b6102376107ae565b6040516102449190612984565b60405180910390f35b6102676004803603810190610262919061299f565b6107bb565b005b610283600480360381019061027e9190612908565b61081b565b6040516102909190612984565b60405180910390f35b6102b360048036038101906102ae919061299f565b6108c0565b005b6102cf60048036038101906102ca9190612853565b6108e0565b005b6102eb60048036038101906102e69190612853565b61092b565b6040516102f89190612984565b60405180910390f35b61031b60048036038101906103169190612af3565b61099c565b005b61033760048036038101906103329190612b4f565b610a0e565b005b610353600480360381019061034e9190612853565b610b9e565b60405161036091906128c1565b60405180910390f35b610383600480360381019061037e9190612948565b610c24565b005b61039f600480360381019061039a9190612948565b610cdf565b6040516103ac9190612984565b60405180910390f35b6103bd610d96565b6040516103ca91906128c1565b60405180910390f35b6103db610dbc565b6040516103e891906127fb565b60405180910390f35b61040b60048036038101906104069190612c36565b610e4e565b005b61042760048036038101906104229190612d17565b610e64565b005b610431610ec6565b60405161043e91906128c1565b60405180910390f35b610461600480360381019061045c9190612853565b610eec565b60405161046e91906127fb565b60405180910390f35b610491600480360381019061048c9190612d9a565b610f80565b60405161049e91906125d2565b60405180910390f35b60007f780e9d63000000000000000000000000000000000000000000000000000000007bffffffffffffffffffffffffffffffffffffffffffffffffffffffff1916827bffffffffffffffffffffffffffffffffffffffffffffffffffffffff1916148061051a575061051982611014565b5b9050919050565b6105296110f6565b80600d90816105389190612fe6565b507ffc16f91ce5a2c5307f3e66e469b98f113dc891a0fe6abb680f79f6cc59f2b22b8160405161056891906127fb565b60405180910390a150565b60606000805461058290612e09565b80601f01602080910402602001604051908101604052809291908181526020018280546105ae90612e09565b80156105fb5780601f106105d0576101008083540402835291602001916105fb565b820191906000526020600020905b8154815290600101906020018083116105de57829003601f168201915b5050505050905090565b600061061082611188565b6004600083815260200190815260200160002060009054906101000a900473ffffffffffffffffffffffffffffffffffffffff169050919050565b600061065682610b9e565b90508073ffffffffffffffffffffffffffffffffffffffff168373ffffffffffffffffffffffffffffffffffffffff16036106c6576040517f08c379a00000000000000000000000000000000000000000000000000000000081526004016106bd9061312a565b60405180910390fd5b8073ffffffffffffffffffffffffffffffffffffffff166106e56111d3565b73ffffffffffffffffffffffffffffffffffffffff16148061071457506107138161070e6111d3565b610f80565b5b610753576040517f08c379a000000000000000000000000000000000000000000000000000000000815260040161074a906131bc565b60405180910390fd5b61075d83836111db565b505050565b61076a6110f6565b80600a60016101000a81548173ffffffffffffffffffffffffffffffffffffffff021916908373ffffffffffffffffffffffffffffffffffffffff16021790555050565b6000600880549050905090565b6107cc6107c66111d3565b82611294565b61080b576040517f08c379a00000000000000000000000000000000000000000000000000000000081526004016108029061324e565b60405180910390fd5b610816838383611329565b505050565b600061082683610cdf565b8210610867576040517f08c379a000000000000000000000000000000000000000000000000000000000815260040161085e906132e0565b60405180910390fd5b600660008473ffffffffffffffffffffffffffffffffffffffff1673ffffffffffffffffffffffffffffffffffffffff168152602001908152602001600020600083815260200190815260200160002054905092915050565b6108db83838360405180602001604052806000815250610e64565b505050565b6108e86110f6565b6108f181611622565b7fb90306ad06b2a6ff86ddc9327db583062895ef6540e62dc50add009db5b356eb816040516109209190612984565b60405180910390a150565b60006109356107ae565b8210610976576040517f08c379a000000000000000000000000000000000000000000000000000000000815260040161096d90613372565b60405180910390fd5b6008828154811061098a57610989613392565b5b90600052602060002001549050919050565b6109a4611770565b60005b8251811015610a095781600e60008584815181106109c8576109c7613392565b5b6020026020010151815260200190815260200160002060006101000a81548160ff021916908360ff1602179055508080610a01906133f0565b9150506109a7565b505050565b6000600a60009054906101000a900460ff1660ff1614610a63576040517f08c379a0000000000000000000000000000000000000000000000000000000008152600401610a5a90613484565b60405180910390fd5b600073ffffffffffffffffffffffffffffffffffffffff16600a60019054906101000a900473ffffffffffffffffffffffffffffffffffffffff1673ffffffffffffffffffffffffffffffffffffffff1614610af4576040517f08c379a0000000000000000000000000000000000000000000000000000000008152600401610aeb906134f0565b60405180910390fd5b83600a60016101000a81548173ffffffffffffffffffffffffffffffffffffffff021916908373ffffffffffffffffffffffffffffffffffffffff16021790555033600b60006101000a81548173ffffffffffffffffffffffffffffffffffffffff021916908373ffffffffffffffffffffffffffffffffffffffff1602179055506000600c8190555080600d9081610b8d9190612fe6565b50610b988383611802565b50505050565b600080610baa83611826565b9050600073ffffffffffffffffffffffffffffffffffffffff168173ffffffffffffffffffffffffffffffffffffffff1603610c1b576040517f08c379a0000000000000000000000000000000000000000000000000000000008152600401610c129061355c565b60405180910390fd5b80915050919050565b6000600a60009054906101000a900460ff1660ff1614610c79576040517f08c379a0000000000000000000000000000000000000000000000000000000008152600401610c70906135c8565b60405180910390fd5b610c816110f6565b6000600c60008154610c92906133f0565b9190508190559050610ca48282611863565b7f07883703ed0e86588a40d76551c92f8a4b329e3bf19765e0e6749473c1a8466581604051610cd39190612984565b60405180910390a15050565b60008073ffffffffffffffffffffffffffffffffffffffff168273ffffffffffffffffffffffffffffffffffffffff1603610d4f576040517f08c379a0000000000000000000000000000000000000000000000000000000008152600401610d469061365a565b60405180910390fd5b600360008373ffffffffffffffffffffffffffffffffffffffff1673ffffffffffffffffffffffffffffffffffffffff168152602001908152602001600020549050919050565b600a60019054906101000a900473ffffffffffffffffffffffffffffffffffffffff1681565b606060018054610dcb90612e09565b80601f0160208091040260200160405190810160405280929190818152602001828054610df790612e09565b8015610e445780601f10610e1957610100808354040283529160200191610e44565b820191906000526020600020905b815481529060010190602001808311610e2757829003601f168201915b5050505050905090565b610e60610e596111d3565b8383611881565b5050565b610e75610e6f6111d3565b83611294565b610eb4576040517f08c379a0000000000000000000000000000000000000000000000000000000008152600401610eab9061324e565b60405180910390fd5b610ec0848484846119ed565b50505050565b600b60009054906101000a900473ffffffffffffffffffffffffffffffffffffffff1681565b6060600d8054610efb90612e09565b80601f0160208091040260200160405190810160405280929190818152602001828054610f2790612e09565b8015610f745780601f10610f4957610100808354040283529160200191610f74565b820191906000526020600020905b815481529060010190602001808311610f5757829003601f168201915b50505050509050919050565b6000600560008473ffffffffffffffffffffffffffffffffffffffff1673ffffffffffffffffffffffffffffffffffffffff16815260200190815260200160002060008373ffffffffffffffffffffffffffffffffffffffff1673ffffffffffffffffffffffffffffffffffffffff16815260200190815260200160002060009054906101000a900460ff16905092915050565b60007f80ac58cd000000000000000000000000000000000000000000000000000000007bffffffffffffffffffffffffffffffffffffffffffffffffffffffff1916827bffffffffffffffffffffffffffffffffffffffffffffffffffffffff191614806110df57507f5b5e139f000000000000000000000000000000000000000000000000000000007bffffffffffffffffffffffffffffffffffffffffffffffffffffffff1916827bffffffffffffffffffffffffffffffffffffffffffffffffffffffff1916145b806110ef57506110ee82611a49565b5b9050919050565b3373ffffffffffffffffffffffffffffffffffffffff16600a60019054906101000a900473ffffffffffffffffffffffffffffffffffffffff1673ffffffffffffffffffffffffffffffffffffffff1614611186576040517f08c379a000000000000000000000000000000000000000000000000000000000815260040161117d906136c6565b60405180910390fd5b565b61119181611ab3565b6111d0576040517f08c379a00000000000000000000000000000000000000000000000000000000081526004016111c79061355c565b60405180910390fd5b50565b600033905090565b816004600083815260200190815260200160002060006101000a81548173ffffffffffffffffffffffffffffffffffffffff021916908373ffffffffffffffffffffffffffffffffffffffff160217905550808273ffffffffffffffffffffffffffffffffffffffff1661124e83610b9e565b73ffffffffffffffffffffffffffffffffffffffff167f8c5be1e5ebec7d5bd14f71427d1e84f3dd0314c0f7b2291e5b200ac8c7c3b92560405160405180910390a45050565b6000806112a083610b9e565b90508073ffffffffffffffffffffffffffffffffffffffff168473ffffffffffffffffffffffffffffffffffffffff1614806112e257506112e18185610f80565b5b8061132057508373ffffffffffffffffffffffffffffffffffffffff1661130884610605565b73ffffffffffffffffffffffffffffffffffffffff16145b91505092915050565b8273ffffffffffffffffffffffffffffffffffffffff1661134982610b9e565b73ffffffffffffffffffffffffffffffffffffffff161461139f576040517f08c379a000000000000000000000000000000000000000000000000000000000815260040161139690613758565b60405180910390fd5b600073ffffffffffffffffffffffffffffffffffffffff168273ffffffffffffffffffffffffffffffffffffffff160361140e576040517f08c379a0000000000000000000000000000000000000000000000000000000008152600401611405906137ea565b60405180910390fd5b61141b8383836001611af4565b8273ffffffffffffffffffffffffffffffffffffffff1661143b82610b9e565b73ffffffffffffffffffffffffffffffffffffffff1614611491576040517f08c379a000000000000000000000000000000000000000000000000000000000815260040161148890613758565b60405180910390fd5b6004600082815260200190815260200160002060006101000a81549073ffffffffffffffffffffffffffffffffffffffff02191690556001600360008573ffffffffffffffffffffffffffffffffffffffff1673ffffffffffffffffffffffffffffffffffffffff168152602001908152602001600020600082825403925050819055506001600360008473ffffffffffffffffffffffffffffffffffffffff1673ffffffffffffffffffffffffffffffffffffffff16815260200190815260200160002060008282540192505081905550816002600083815260200190815260200160002060006101000a81548173ffffffffffffffffffffffffffffffffffffffff021916908373ffffffffffffffffffffffffffffffffffffffff160217905550808273ffffffffffffffffffffffffffffffffffffffff168473ffffffffffffffffffffffffffffffffffffffff167fddf252ad1be2c89b69c2b068fc378daa952ba7f163c4a11628f55a4df523b3ef60405160405180910390a461161d8383836001611b6c565b505050565b600061162d82610b9e565b905061163d816000846001611af4565b61164682610b9e565b90506004600083815260200190815260200160002060006101000a81549073ffffffffffffffffffffffffffffffffffffffff02191690556001600360008373ffffffffffffffffffffffffffffffffffffffff1673ffffffffffffffffffffffffffffffffffffffff168152602001908152602001600020600082825403925050819055506002600083815260200190815260200160002060006101000a81549073ffffffffffffffffffffffffffffffffffffffff021916905581600073ffffffffffffffffffffffffffffffffffffffff168273ffffffffffffffffffffffffffffffffffffffff167fddf252ad1be2c89b69c2b068fc378daa952ba7f163c4a11628f55a4df523b3ef60405160405180910390a461176c816000846001611b6c565b5050565b3373ffffffffffffffffffffffffffffffffffffffff16600b60009054906101000a900473ffffffffffffffffffffffffffffffffffffffff1673ffffffffffffffffffffffffffffffffffffffff1614611800576040517f08c379a00000000000000000000000000000000000000000000000000000000081526004016117f790613856565b60405180910390fd5b565b81600090816118119190612fe6565b5080600190816118219190612fe6565b505050565b60006002600083815260200190815260200160002060009054906101000a900473ffffffffffffffffffffffffffffffffffffffff169050919050565b61187d828260405180602001604052806000815250611b72565b5050565b8173ffffffffffffffffffffffffffffffffffffffff168373ffffffffffffffffffffffffffffffffffffffff16036118ef576040517f08c379a00000000000000000000000000000000000000000000000000000000081526004016118e6906138c2565b60405180910390fd5b80600560008573ffffffffffffffffffffffffffffffffffffffff1673ffffffffffffffffffffffffffffffffffffffff16815260200190815260200160002060008473ffffffffffffffffffffffffffffffffffffffff1673ffffffffffffffffffffffffffffffffffffffff16815260200190815260200160002060006101000a81548160ff0219169083151502179055508173ffffffffffffffffffffffffffffffffffffffff168373ffffffffffffffffffffffffffffffffffffffff167f17307eab39ab6107e8899845ad3d59bd9653f200f220920489ca2b5937696c31836040516119e091906125d2565b60405180910390a3505050565b6119f8848484611329565b611a0484848484611bcd565b611a43576040517f08c379a0000000000000000000000000000000000000000000000000000000008152600401611a3a90613954565b60405180910390fd5b50505050565b60007f01ffc9a7000000000000000000000000000000000000000000000000000000007bffffffffffffffffffffffffffffffffffffffffffffffffffffffff1916827bffffffffffffffffffffffffffffffffffffffffffffffffffffffff1916149050919050565b60008073ffffffffffffffffffffffffffffffffffffffff16611ad583611826565b73ffffffffffffffffffffffffffffffffffffffff1614159050919050565b6000600e600084815260200190815260200160002060009054906101000a900460ff1660ff1614611b5a576040517f08c379a0000000000000000000000000000000000000000000000000000000008152600401611b51906139c0565b60405180910390fd5b611b6684848484611d54565b50505050565b50505050565b611b7c8383611eb2565b611b896000848484611bcd565b611bc8576040517f08c379a0000000000000000000000000000000000000000000000000000000008152600401611bbf90613954565b60405180910390fd5b505050565b6000611bee8473ffffffffffffffffffffffffffffffffffffffff166120cf565b15611d47578373ffffffffffffffffffffffffffffffffffffffff1663150b7a02611c176111d3565b8786866040518563ffffffff1660e01b8152600401611c399493929190613a35565b6020604051808303816000875af1925050508015611c7557506040513d601f19601f82011682018060405250810190611c729190613a96565b60015b611cf7573d8060008114611ca5576040519150601f19603f3d011682016040523d82523d6000602084013e611caa565b606091505b506000815103611cef576040517f08c379a0000000000000000000000000000000000000000000000000000000008152600401611ce690613954565b60405180910390fd5b805181602001fd5b63150b7a0260e01b7bffffffffffffffffffffffffffffffffffffffffffffffffffffffff1916817bffffffffffffffffffffffffffffffffffffffffffffffffffffffff191614915050611d4c565b600190505b949350505050565b611d60848484846120f2565b6001811115611da4576040517f08c379a0000000000000000000000000000000000000000000000000000000008152600401611d9b90613b35565b60405180910390fd5b6000829050600073ffffffffffffffffffffffffffffffffffffffff168573ffffffffffffffffffffffffffffffffffffffff1603611deb57611de681612218565b611e2a565b8373ffffffffffffffffffffffffffffffffffffffff168573ffffffffffffffffffffffffffffffffffffffff1614611e2957611e288582612261565b5b5b600073ffffffffffffffffffffffffffffffffffffffff168473ffffffffffffffffffffffffffffffffffffffff1603611e6c57611e67816123ce565b611eab565b8473ffffffffffffffffffffffffffffffffffffffff168473ffffffffffffffffffffffffffffffffffffffff1614611eaa57611ea9848261249f565b5b5b5050505050565b600073ffffffffffffffffffffffffffffffffffffffff168273ffffffffffffffffffffffffffffffffffffffff1603611f21576040517f08c379a0000000000000000000000000000000000000000000000000000000008152600401611f1890613ba1565b60405180910390fd5b611f2a81611ab3565b15611f6a576040517f08c379a0000000000000000000000000000000000000000000000000000000008152600401611f6190613c0d565b60405180910390fd5b611f78600083836001611af4565b611f8181611ab3565b15611fc1576040517f08c379a0000000000000000000000000000000000000000000000000000000008152600401611fb890613c0d565b60405180910390fd5b6001600360008473ffffffffffffffffffffffffffffffffffffffff1673ffffffffffffffffffffffffffffffffffffffff16815260200190815260200160002060008282540192505081905550816002600083815260200190815260200160002060006101000a81548173ffffffffffffffffffffffffffffffffffffffff021916908373ffffffffffffffffffffffffffffffffffffffff160217905550808273ffffffffffffffffffffffffffffffffffffffff16600073ffffffffffffffffffffffffffffffffffffffff167fddf252ad1be2c89b69c2b068fc378daa952ba7f163c4a11628f55a4df523b3ef60405160405180910390a46120cb600083836001611b6c565b5050565b6000808273ffffffffffffffffffffffffffffffffffffffff163b119050919050565b600181111561221257600073ffffffffffffffffffffffffffffffffffffffff168473ffffffffffffffffffffffffffffffffffffffff16146121865780600360008673ffffffffffffffffffffffffffffffffffffffff1673ffffffffffffffffffffffffffffffffffffffff168152602001908152602001600020600082825461217e9190613c2d565b925050819055505b600073ffffffffffffffffffffffffffffffffffffffff168373ffffffffffffffffffffffffffffffffffffffff16146122115780600360008573ffffffffffffffffffffffffffffffffffffffff1673ffffffffffffffffffffffffffffffffffffffff16815260200190815260200160002060008282546122099190613c61565b925050819055505b5b50505050565b6008805490506009600083815260200190815260200160002081905550600881908060018154018082558091505060019003906000526020600020016000909190919091505550565b6000600161226e84610cdf565b6122789190613c2d565b905060006007600084815260200190815260200160002054905081811461235d576000600660008673ffffffffffffffffffffffffffffffffffffffff1673ffffffffffffffffffffffffffffffffffffffff168152602001908152602001600020600084815260200190815260200160002054905080600660008773ffffffffffffffffffffffffffffffffffffffff1673ffffffffffffffffffffffffffffffffffffffff168152602001908152602001600020600084815260200190815260200160002081905550816007600083815260200190815260200160002081905550505b6007600084815260200190815260200160002060009055600660008573ffffffffffffffffffffffffffffffffffffffff1673ffffffffffffffffffffffffffffffffffffffff16815260200190815260200160002060008381526020019081526020016000206000905550505050565b600060016008805490506123e29190613c2d565b905060006009600084815260200190815260200160002054905060006008838154811061241257612411613392565b5b90600052602060002001549050806008838154811061243457612433613392565b5b90600052602060002001819055508160096000838152602001908152602001600020819055506009600085815260200190815260200160002060009055600880548061248357612482613c95565b5b6001900381819060005260206000200160009055905550505050565b60006124aa83610cdf565b905081600660008573ffffffffffffffffffffffffffffffffffffffff1673ffffffffffffffffffffffffffffffffffffffff168152602001908152602001600020600083815260200190815260200160002081905550806007600084815260200190815260200160002081905550505050565b6000604051905090565b600080fd5b600080fd5b60007fffffffff0000000000000000000000000000000000000000000000000000000082169050919050565b61256781612532565b811461257257600080fd5b50565b6000813590506125848161255e565b92915050565b6000602082840312156125a05761259f612528565b5b60006125ae84828501612575565b91505092915050565b60008115159050919050565b6125cc816125b7565b82525050565b60006020820190506125e760008301846125c3565b92915050565b600080fd5b600080fd5b6000601f19601f8301169050919050565b7f4e487b7100000000000000000000000000000000000000000000000000000000600052604160045260246000fd5b612640826125f7565b810181811067ffffffffffffffff8211171561265f5761265e612608565b5b80604052505050565b600061267261251e565b905061267e8282612637565b919050565b600067ffffffffffffffff82111561269e5761269d612608565b5b6126a7826125f7565b9050602081019050919050565b82818337600083830152505050565b60006126d66126d184612683565b612668565b9050828152602081018484840111156126f2576126f16125f2565b5b6126fd8482856126b4565b509392505050565b600082601f83011261271a576127196125ed565b5b813561272a8482602086016126c3565b91505092915050565b60006020828403121561274957612748612528565b5b600082013567ffffffffffffffff8111156127675761276661252d565b5b61277384828501612705565b91505092915050565b600081519050919050565b600082825260208201905092915050565b60005b838110156127b657808201518184015260208101905061279b565b60008484015250505050565b60006127cd8261277c565b6127d78185612787565b93506127e7818560208601612798565b6127f0816125f7565b840191505092915050565b6000602082019050818103600083015261281581846127c2565b905092915050565b6000819050919050565b6128308161281d565b811461283b57600080fd5b50565b60008135905061284d81612827565b92915050565b60006020828403121561286957612868612528565b5b60006128778482850161283e565b91505092915050565b600073ffffffffffffffffffffffffffffffffffffffff82169050919050565b60006128ab82612880565b9050919050565b6128bb816128a0565b82525050565b60006020820190506128d660008301846128b2565b92915050565b6128e5816128a0565b81146128f057600080fd5b50565b600081359050612902816128dc565b92915050565b6000806040838503121561291f5761291e612528565b5b600061292d858286016128f3565b925050602061293e8582860161283e565b9150509250929050565b60006020828403121561295e5761295d612528565b5b600061296c848285016128f3565b91505092915050565b61297e8161281d565b82525050565b60006020820190506129996000830184612975565b92915050565b6000806000606084860312156129b8576129b7612528565b5b60006129c6868287016128f3565b93505060206129d7868287016128f3565b92505060406129e88682870161283e565b9150509250925092565b600067ffffffffffffffff821115612a0d57612a0c612608565b5b602082029050602081019050919050565b600080fd5b6000612a36612a31846129f2565b612668565b90508083825260208201905060208402830185811115612a5957612a58612a1e565b5b835b81811015612a825780612a6e888261283e565b845260208401935050602081019050612a5b565b5050509392505050565b600082601f830112612aa157612aa06125ed565b5b8135612ab1848260208601612a23565b91505092915050565b600060ff82169050919050565b612ad081612aba565b8114612adb57600080fd5b50565b600081359050612aed81612ac7565b92915050565b60008060408385031215612b0a57612b09612528565b5b600083013567ffffffffffffffff811115612b2857612b2761252d565b5b612b3485828601612a8c565b9250506020612b4585828601612ade565b9150509250929050565b60008060008060808587031215612b6957612b68612528565b5b6000612b77878288016128f3565b945050602085013567ffffffffffffffff811115612b9857612b9761252d565b5b612ba487828801612705565b935050604085013567ffffffffffffffff811115612bc557612bc461252d565b5b612bd187828801612705565b925050606085013567ffffffffffffffff811115612bf257612bf161252d565b5b612bfe87828801612705565b91505092959194509250565b612c13816125b7565b8114612c1e57600080fd5b50565b600081359050612c3081612c0a565b92915050565b60008060408385031215612c4d57612c4c612528565b5b6000612c5b858286016128f3565b9250506020612c6c85828601612c21565b9150509250929050565b600067ffffffffffffffff821115612c9157612c90612608565b5b612c9a826125f7565b9050602081019050919050565b6000612cba612cb584612c76565b612668565b905082815260208101848484011115612cd657612cd56125f2565b5b612ce18482856126b4565b509392505050565b600082601f830112612cfe57612cfd6125ed565b5b8135612d0e848260208601612ca7565b91505092915050565b60008060008060808587031215612d3157612d30612528565b5b6000612d3f878288016128f3565b9450506020612d50878288016128f3565b9350506040612d618782880161283e565b925050606085013567ffffffffffffffff811115612d8257612d8161252d565b5b612d8e87828801612ce9565b91505092959194509250565b60008060408385031215612db157612db0612528565b5b6000612dbf858286016128f3565b9250506020612dd0858286016128f3565b9150509250929050565b7f4e487b7100000000000000000000000000000000000000000000000000000000600052602260045260246000fd5b60006002820490506001821680612e2157607f821691505b602082108103612e3457612e33612dda565b5b50919050565b60008190508160005260206000209050919050565b60006020601f8301049050919050565b600082821b905092915050565b600060088302612e9c7fffffffffffffffffffffffffffffffffffffffffffffffffffffffffffffffff82612e5f565b612ea68683612e5f565b95508019841693508086168417925050509392505050565b6000819050919050565b6000612ee3612ede612ed98461281d565b612ebe565b61281d565b9050919050565b6000819050919050565b612efd83612ec8565b612f11612f0982612eea565b848454612e6c565b825550505050565b600090565b612f26612f19565b612f31818484612ef4565b505050565b5b81811015612f5557612f4a600082612f1e565b600181019050612f37565b5050565b601f821115612f9a57612f6b81612e3a565b612f7484612e4f565b81016020851015612f83578190505b612f97612f8f85612e4f565b830182612f36565b50505b505050565b600082821c905092915050565b6000612fbd60001984600802612f9f565b1980831691505092915050565b6000612fd68383612fac565b9150826002028217905092915050565b612fef8261277c565b67ffffffffffffffff81111561300857613007612608565b5b6130128254612e09565b61301d828285612f59565b600060209050601f831160018114613050576000841561303e578287015190505b6130488582612fca565b8655506130b0565b601f19841661305e86612e3a565b60005b8281101561308657848901518255600182019150602085019450602081019050613061565b868310156130a3578489015161309f601f891682612fac565b8355505b6001600288020188555050505b505050505050565b7f4552433732313a20617070726f76616c20746f2063757272656e74206f776e6560008201527f7200000000000000000000000000000000000000000000000000000000000000602082015250565b6000613114602183612787565b915061311f826130b8565b604082019050919050565b6000602082019050818103600083015261314381613107565b9050919050565b7f4552433732313a20617070726f76652063616c6c6572206973206e6f7420746f60008201527f6b656e206f776e6572206f7220617070726f76656420666f7220616c6c000000602082015250565b60006131a6603d83612787565b91506131b18261314a565b604082019050919050565b600060208201905081810360008301526131d581613199565b9050919050565b7f4552433732313a2063616c6c6572206973206e6f7420746f6b656e206f776e6560008201527f72206f7220617070726f76656400000000000000000000000000000000000000602082015250565b6000613238602d83612787565b9150613243826131dc565b604082019050919050565b600060208201905081810360008301526132678161322b565b9050919050565b7f455243373231456e756d657261626c653a206f776e657220696e646578206f7560008201527f74206f6620626f756e6473000000000000000000000000000000000000000000602082015250565b60006132ca602b83612787565b91506132d58261326e565b604082019050919050565b600060208201905081810360008301526132f9816132bd565b9050919050565b7f455243373231456e756d657261626c653a20676c6f62616c20696e646578206f60008201527f7574206f6620626f756e64730000000000000000000000000000000000000000602082015250565b600061335c602c83612787565b915061336782613300565b604082019050919050565b6000602082019050818103600083015261338b8161334f565b9050919050565b7f4e487b7100000000000000000000000000000000000000000000000000000000600052603260045260246000fd5b7f4e487b7100000000000000000000000000000000000000000000000000000000600052601160045260246000fd5b60006133fb8261281d565b91507fffffffffffffffffffffffffffffffffffffffffffffffffffffffffffffffff820361342d5761342c6133c1565b5b600182019050919050565b7f4261736520436f6e747261637400000000000000000000000000000000000000600082015250565b600061346e600d83612787565b915061347982613438565b602082019050919050565b6000602082019050818103600083015261349d81613461565b9050919050565b7f416c726561647920696e697469616c697a656400000000000000000000000000600082015250565b60006134da601383612787565b91506134e5826134a4565b602082019050919050565b60006020820190508181036000830152613509816134cd565b9050919050565b7f4552433732313a20696e76616c696420746f6b656e2049440000000000000000600082015250565b6000613546601883612787565b915061355182613510565b602082019050919050565b6000602082019050818103600083015261357581613539565b9050919050565b7f4973206e6f7420696e697469616c697a65640000000000000000000000000000600082015250565b60006135b2601283612787565b91506135bd8261357c565b602082019050919050565b600060208201905081810360008301526135e1816135a5565b9050919050565b7f4552433732313a2061646472657373207a65726f206973206e6f74206120766160008201527f6c6964206f776e65720000000000000000000000000000000000000000000000602082015250565b6000613644602983612787565b915061364f826135e8565b604082019050919050565b6000602082019050818103600083015261367381613637565b9050919050565b7f4f6e6c794f776e65720000000000000000000000000000000000000000000000600082015250565b60006136b0600983612787565b91506136bb8261367a565b602082019050919050565b600060208201905081810360008301526136df816136a3565b9050919050565b7f4552433732313a207472616e736665722066726f6d20696e636f72726563742060008201527f6f776e6572000000000000000000000000000000000000000000000000000000602082015250565b6000613742602583612787565b915061374d826136e6565b604082019050919050565b6000602082019050818103600083015261377181613735565b9050919050565b7f4552433732313a207472616e7366657220746f20746865207a65726f2061646460008201527f7265737300000000000000000000000000000000000000000000000000000000602082015250565b60006137d4602483612787565b91506137df82613778565b604082019050919050565b60006020820190508181036000830152613803816137c7565b9050919050565b7f4f6e6c79466163746f7279000000000000000000000000000000000000000000600082015250565b6000613840600b83612787565b915061384b8261380a565b602082019050919050565b6000602082019050818103600083015261386f81613833565b9050919050565b7f4552433732313a20617070726f766520746f2063616c6c657200000000000000600082015250565b60006138ac601983612787565b91506138b782613876565b602082019050919050565b600060208201905081810360008301526138db8161389f565b9050919050565b7f4552433732313a207472616e7366657220746f206e6f6e20455243373231526560008201527f63656976657220696d706c656d656e7465720000000000000000000000000000602082015250565b600061393e603283612787565b9150613949826138e2565b604082019050919050565b6000602082019050818103600083015261396d81613931565b9050919050565b7f4e4654206973206c6f636b656400000000000000000000000000000000000000600082015250565b60006139aa600d83612787565b91506139b582613974565b602082019050919050565b600060208201905081810360008301526139d98161399d565b9050919050565b600081519050919050565b600082825260208201905092915050565b6000613a07826139e0565b613a1181856139eb565b9350613a21818560208601612798565b613a2a816125f7565b840191505092915050565b6000608082019050613a4a60008301876128b2565b613a5760208301866128b2565b613a646040830185612975565b8181036060830152613a7681846139fc565b905095945050505050565b600081519050613a908161255e565b92915050565b600060208284031215613aac57613aab612528565b5b6000613aba84828501613a81565b91505092915050565b7f455243373231456e756d657261626c653a20636f6e736563757469766520747260008201527f616e7366657273206e6f7420737570706f727465640000000000000000000000602082015250565b6000613b1f603583612787565b9150613b2a82613ac3565b604082019050919050565b60006020820190508181036000830152613b4e81613b12565b9050919050565b7f4552433732313a206d696e7420746f20746865207a65726f2061646472657373600082015250565b6000613b8b602083612787565b9150613b9682613b55565b602082019050919050565b60006020820190508181036000830152613bba81613b7e565b9050919050565b7f4552433732313a20746f6b656e20616c7265616479206d696e74656400000000600082015250565b6000613bf7601c83612787565b9150613c0282613bc1565b602082019050919050565b60006020820190508181036000830152613c2681613bea565b9050919050565b6000613c388261281d565b9150613c438361281d565b9250828203905081811115613c5b57613c5a6133c1565b5b92915050565b6000613c6c8261281d565b9150613c778361281d565b9250828201905080821115613c8f57613c8e6133c1565b5b92915050565b7f4e487b7100000000000000000000000000000000000000000000000000000000600052603160045260246000fdfea2646970667358221220692728671e6349914a86a8e14f93f8d1bf5bb74126bcaf19f694c8020c1336bc64736f6c63430008110033",
  "linkReferences": {},
  "deployedLinkReferences": {}
}