{
  "_format": "hh-sol-artifact-1",
  "contractName": "DSDBenefitNFT",
  "sourceName": "contracts/DSDBenefitNFT.sol",
  "abi": [
    {
      "inputs": [],
      "stateMutability": "nonpayable",
      "type": "constructor"
    },
    {
      "anonymous": false,
      "inputs": [
        {
          "indexed": true,
          "internalType": "address",
          "name": "owner",
          "type": "address"
        },
        {
          "indexed": true,
          "internalType": "address",
          "name": "approved",
          "type": "address"
        },
        {
          "indexed": true,
          "internalType": "uint256",
          "name": "tokenId",
          "type": "uint256"
        }
      ],
      "name": "Approval",
      "type": "event"
    },
    {
      "anonymous": false,
      "inputs": [
        {
          "indexed": true,
          "internalType": "address",
          "name": "owner",
          "type": "address"
        },
        {
          "indexed": true,
          "internalType": "address",
          "name": "operator",
          "type": "address"
        },
        {
          "indexed": false,
          "internalType": "bool",
          "name": "approved",
          "type": "bool"
        }
      ],
      "name": "ApprovalForAll",
      "type": "event"
    },
    {
      "anonymous": false,
      "inputs": [
        {
          "indexed": false,
          "internalType": "uint256",
          "name": "",
          "type": "uint256"
        }
      ],
      "name": "Burn",
      "type": "event"
    },
    {
      "anonymous": false,
      "inputs": [
        {
          "indexed": false,
          "internalType": "string",
          "name": "",
          "type": "string"
        }
      ],
      "name": "ChangeURI",
      "type": "event"
    },
    {
      "anonymous": false,
      "inputs": [
        {
          "indexed": false,
          "internalType": "uint256",
          "name": "",
          "type": "uint256"
        }
      ],
      "name": "Mint",
      "type": "event"
    },
    {
      "anonymous": false,
      "inputs": [
        {
          "indexed": true,
          "internalType": "address",
          "name": "from",
          "type": "address"
        },
        {
          "indexed": true,
          "internalType": "address",
          "name": "to",
          "type": "address"
        },
        {
          "indexed": true,
          "internalType": "uint256",
          "name": "tokenId",
          "type": "uint256"
        }
      ],
      "name": "Transfer",
      "type": "event"
    },
    {
      "inputs": [
        {
          "internalType": "address",
          "name": "to",
          "type": "address"
        },
        {
          "internalType": "uint256",
          "name": "tokenId",
          "type": "uint256"
        }
      ],
      "name": "approve",
      "outputs": [],
      "stateMutability": "nonpayable",
      "type": "function"
    },
    {
      "inputs": [
        {
          "internalType": "address",
          "name": "owner",
          "type": "address"
        }
      ],
      "name": "balanceOf",
      "outputs": [
        {
          "internalType": "uint256",
          "name": "",
          "type": "uint256"
        }
      ],
      "stateMutability": "view",
      "type": "function"
    },
    {
      "inputs": [
        {
          "internalType": "uint256",
          "name": "_id",
          "type": "uint256"
        }
      ],
      "name": "burn",
      "outputs": [],
      "stateMutability": "nonpayable",
      "type": "function"
    },
    {
      "inputs": [],
      "name": "factory",
      "outputs": [
        {
          "internalType": "address",
          "name": "",
          "type": "address"
        }
      ],
      "stateMutability": "view",
      "type": "function"
    },
    {
      "inputs": [
        {
          "internalType": "uint256",
          "name": "tokenId",
          "type": "uint256"
        }
      ],
      "name": "getApproved",
      "outputs": [
        {
          "internalType": "address",
          "name": "",
          "type": "address"
        }
      ],
      "stateMutability": "view",
      "type": "function"
    },
    {
      "inputs": [
        {
          "internalType": "address",
          "name": "_owner",
          "type": "address"
        },
        {
          "internalType": "string",
          "name": "_name",
          "type": "string"
        },
        {
          "internalType": "string",
          "name": "_symbol",
          "type": "string"
        }
      ],
      "name": "initialize",
      "outputs": [],
      "stateMutability": "nonpayable",
      "type": "function"
    },
    {
      "inputs": [
        {
          "internalType": "address",
          "name": "owner",
          "type": "address"
        },
        {
          "internalType": "address",
          "name": "operator",
          "type": "address"
        }
      ],
      "name": "isApprovedForAll",
      "outputs": [
        {
          "internalType": "bool",
          "name": "",
          "type": "bool"
        }
      ],
      "stateMutability": "view",
      "type": "function"
    },
    {
      "inputs": [
        {
          "internalType": "address",
          "name": "_to",
          "type": "address"
        },
        {
          "internalType": "string",
          "name": "_uri",
          "type": "string"
        }
      ],
      "name": "mint",
      "outputs": [],
      "stateMutability": "nonpayable",
      "type": "function"
    },
    {
      "inputs": [],
      "name": "name",
      "outputs": [
        {
          "internalType": "string",
          "name": "",
          "type": "string"
        }
      ],
      "stateMutability": "view",
      "type": "function"
    },
    {
      "inputs": [],
      "name": "owner",
      "outputs": [
        {
          "internalType": "address",
          "name": "",
          "type": "address"
        }
      ],
      "stateMutability": "view",
      "type": "function"
    },
    {
      "inputs": [
        {
          "internalType": "uint256",
          "name": "tokenId",
          "type": "uint256"
        }
      ],
      "name": "ownerOf",
      "outputs": [
        {
          "internalType": "address",
          "name": "",
          "type": "address"
        }
      ],
      "stateMutability": "view",
      "type": "function"
    },
    {
      "inputs": [
        {
          "internalType": "address",
          "name": "from",
          "type": "address"
        },
        {
          "internalType": "address",
          "name": "to",
          "type": "address"
        },
        {
          "internalType": "uint256",
          "name": "tokenId",
          "type": "uint256"
        }
      ],
      "name": "safeTransferFrom",
      "outputs": [],
      "stateMutability": "nonpayable",
      "type": "function"
    },
    {
      "inputs": [
        {
          "internalType": "address",
          "name": "from",
          "type": "address"
        },
        {
          "internalType": "address",
          "name": "to",
          "type": "address"
        },
        {
          "internalType": "uint256",
          "name": "tokenId",
          "type": "uint256"
        },
        {
          "internalType": "bytes",
          "name": "data",
          "type": "bytes"
        }
      ],
      "name": "safeTransferFrom",
      "outputs": [],
      "stateMutability": "nonpayable",
      "type": "function"
    },
    {
      "inputs": [
        {
          "internalType": "address",
          "name": "operator",
          "type": "address"
        },
        {
          "internalType": "bool",
          "name": "approved",
          "type": "bool"
        }
      ],
      "name": "setApprovalForAll",
      "outputs": [],
      "stateMutability": "nonpayable",
      "type": "function"
    },
    {
      "inputs": [
        {
          "internalType": "uint256[]",
          "name": "_ids",
          "type": "uint256[]"
        },
        {
          "internalType": "uint8",
          "name": "_lock",
          "type": "uint8"
        }
      ],
      "name": "setLock",
      "outputs": [],
      "stateMutability": "nonpayable",
      "type": "function"
    },
    {
      "inputs": [
        {
          "internalType": "address",
          "name": "_newAdd",
          "type": "address"
        }
      ],
      "name": "setOwner",
      "outputs": [],
      "stateMutability": "nonpayable",
      "type": "function"
    },
    {
      "inputs": [
        {
          "internalType": "bytes4",
          "name": "interfaceId",
          "type": "bytes4"
        }
      ],
      "name": "supportsInterface",
      "outputs": [
        {
          "internalType": "bool",
          "name": "",
          "type": "bool"
        }
      ],
      "stateMutability": "view",
      "type": "function"
    },
    {
      "inputs": [],
      "name": "symbol",
      "outputs": [
        {
          "internalType": "string",
          "name": "",
          "type": "string"
        }
      ],
      "stateMutability": "view",
      "type": "function"
    },
    {
      "inputs": [
        {
          "internalType": "uint256",
          "name": "tokenId",
          "type": "uint256"
        }
      ],
      "name": "tokenURI",
      "outputs": [
        {
          "internalType": "string",
          "name": "",
          "type": "string"
        }
      ],
      "stateMutability": "view",
      "type": "function"
    },
    {
      "inputs": [
        {
          "internalType": "address",
          "name": "from",
          "type": "address"
        },
        {
          "internalType": "address",
          "name": "to",
          "type": "address"
        },
        {
          "internalType": "uint256",
          "name": "tokenId",
          "type": "uint256"
        }
      ],
      "name": "transferFrom",
      "outputs": [],
      "stateMutability": "nonpayable",
      "type": "function"
    }
  ],
  "bytecode": "0x608060405234801561001057600080fd5b506001600760006101000a81548160ff021916908360ff1602179055506135a88061003c6000396000f3fe608060405234801561001057600080fd5b506004361061012c5760003560e01c806370a08231116100ad578063b88d4fde11610071578063b88d4fde1461032b578063c45a015514610347578063c87b56dd14610365578063d0def52114610395578063e985e9c5146103b15761012c565b806370a08231146102875780638da5cb5b146102b757806390657147146102d557806395d89b41146102f1578063a22cb4651461030f5761012c565b806323b872dd116100f457806323b872dd146101e757806342842e0e1461020357806342966c681461021f5780634ffb55831461023b5780636352211e146102575761012c565b806301ffc9a71461013157806306fdde0314610161578063081812fc1461017f578063095ea7b3146101af57806313af4035146101cb575b600080fd5b61014b60048036038101906101469190611fa8565b6103e1565b6040516101589190611ff0565b60405180910390f35b6101696104c3565b604051610176919061209b565b60405180910390f35b610199600480360381019061019491906120f3565b610555565b6040516101a69190612161565b60405180910390f35b6101c960048036038101906101c491906121a8565b61059b565b005b6101e560048036038101906101e091906121e8565b6106b2565b005b61020160048036038101906101fc9190612215565b6106fe565b005b61021d60048036038101906102189190612215565b61075e565b005b610239600480360381019061023491906120f3565b61077e565b005b610255600480360381019061025091906123e9565b6107c9565b005b610271600480360381019061026c91906120f3565b61083b565b60405161027e9190612161565b60405180910390f35b6102a1600480360381019061029c91906121e8565b6108c1565b6040516102ae9190612454565b60405180910390f35b6102bf610978565b6040516102cc9190612161565b60405180910390f35b6102ef60048036038101906102ea9190612524565b61099e565b005b6102f9610b1d565b604051610306919061209b565b60405180910390f35b610329600480360381019061032491906125db565b610baf565b005b610345600480360381019061034091906126bc565b610bc5565b005b61034f610c27565b60405161035c9190612161565b60405180910390f35b61037f600480360381019061037a91906120f3565b610c4d565b60405161038c919061209b565b60405180910390f35b6103af60048036038101906103aa919061273f565b610d01565b005b6103cb60048036038101906103c6919061279b565b610dc7565b6040516103d89190611ff0565b60405180910390f35b60007f80ac58cd000000000000000000000000000000000000000000000000000000007bffffffffffffffffffffffffffffffffffffffffffffffffffffffff1916827bffffffffffffffffffffffffffffffffffffffffffffffffffffffff191614806104ac57507f5b5e139f000000000000000000000000000000000000000000000000000000007bffffffffffffffffffffffffffffffffffffffffffffffffffffffff1916827bffffffffffffffffffffffffffffffffffffffffffffffffffffffff1916145b806104bc57506104bb82610e5b565b5b9050919050565b6060600080546104d29061280a565b80601f01602080910402602001604051908101604052809291908181526020018280546104fe9061280a565b801561054b5780601f106105205761010080835404028352916020019161054b565b820191906000526020600020905b81548152906001019060200180831161052e57829003601f168201915b5050505050905090565b600061056082610ec5565b6004600083815260200190815260200160002060009054906101000a900473ffffffffffffffffffffffffffffffffffffffff169050919050565b60006105a68261083b565b90508073ffffffffffffffffffffffffffffffffffffffff168373ffffffffffffffffffffffffffffffffffffffff1603610616576040517f08c379a000000000000000000000000000000000000000000000000000000000815260040161060d906128ad565b60405180910390fd5b8073ffffffffffffffffffffffffffffffffffffffff16610635610f10565b73ffffffffffffffffffffffffffffffffffffffff16148061066457506106638161065e610f10565b610dc7565b5b6106a3576040517f08c379a000000000000000000000000000000000000000000000000000000000815260040161069a9061293f565b60405180910390fd5b6106ad8383610f18565b505050565b6106ba610fd1565b80600760016101000a81548173ffffffffffffffffffffffffffffffffffffffff021916908373ffffffffffffffffffffffffffffffffffffffff16021790555050565b61070f610709610f10565b82611063565b61074e576040517f08c379a0000000000000000000000000000000000000000000000000000000008152600401610745906129d1565b60405180910390fd5b6107598383836110f8565b505050565b61077983838360405180602001604052806000815250610bc5565b505050565b610786610fd1565b61078f816113f1565b7fb90306ad06b2a6ff86ddc9327db583062895ef6540e62dc50add009db5b356eb816040516107be9190612454565b60405180910390a150565b6107d1611444565b60005b82518110156108365781600a60008584815181106107f5576107f46129f1565b5b6020026020010151815260200190815260200160002060006101000a81548160ff021916908360ff160217905550808061082e90612a4f565b9150506107d4565b505050565b600080610847836114d6565b9050600073ffffffffffffffffffffffffffffffffffffffff168173ffffffffffffffffffffffffffffffffffffffff16036108b8576040517f08c379a00000000000000000000000000000000000000000000000000000000081526004016108af90612ae3565b60405180910390fd5b80915050919050565b60008073ffffffffffffffffffffffffffffffffffffffff168273ffffffffffffffffffffffffffffffffffffffff1603610931576040517f08c379a000000000000000000000000000000000000000000000000000000000815260040161092890612b75565b60405180910390fd5b600360008373ffffffffffffffffffffffffffffffffffffffff1673ffffffffffffffffffffffffffffffffffffffff168152602001908152602001600020549050919050565b600760019054906101000a900473ffffffffffffffffffffffffffffffffffffffff1681565b6000600760009054906101000a900460ff1660ff16146109f3576040517f08c379a00000000000000000000000000000000000000000000000000000000081526004016109ea90612be1565b60405180910390fd5b600073ffffffffffffffffffffffffffffffffffffffff16600760019054906101000a900473ffffffffffffffffffffffffffffffffffffffff1673ffffffffffffffffffffffffffffffffffffffff1614610a84576040517f08c379a0000000000000000000000000000000000000000000000000000000008152600401610a7b90612c4d565b60405180910390fd5b82600760016101000a81548173ffffffffffffffffffffffffffffffffffffffff021916908373ffffffffffffffffffffffffffffffffffffffff16021790555033600860006101000a81548173ffffffffffffffffffffffffffffffffffffffff021916908373ffffffffffffffffffffffffffffffffffffffff1602179055506000600981905550610b188282611513565b505050565b606060018054610b2c9061280a565b80601f0160208091040260200160405190810160405280929190818152602001828054610b589061280a565b8015610ba55780601f10610b7a57610100808354040283529160200191610ba5565b820191906000526020600020905b815481529060010190602001808311610b8857829003601f168201915b5050505050905090565b610bc1610bba610f10565b8383611537565b5050565b610bd6610bd0610f10565b83611063565b610c15576040517f08c379a0000000000000000000000000000000000000000000000000000000008152600401610c0c906129d1565b60405180910390fd5b610c21848484846116a3565b50505050565b600860009054906101000a900473ffffffffffffffffffffffffffffffffffffffff1681565b6060610c5882610ec5565b6000600660008481526020019081526020016000208054610c789061280a565b80601f0160208091040260200160405190810160405280929190818152602001828054610ca49061280a565b8015610cf15780601f10610cc657610100808354040283529160200191610cf1565b820191906000526020600020905b815481529060010190602001808311610cd457829003601f168201915b5050505050905080915050919050565b6000600760009054906101000a900460ff1660ff1614610d56576040517f08c379a0000000000000000000000000000000000000000000000000000000008152600401610d4d90612cb9565b60405180910390fd5b610d5e610fd1565b6000600960008154610d6f90612a4f565b9190508190559050610d8183826116ff565b610d8b818361171d565b7f07883703ed0e86588a40d76551c92f8a4b329e3bf19765e0e6749473c1a8466581604051610dba9190612454565b60405180910390a1505050565b6000600560008473ffffffffffffffffffffffffffffffffffffffff1673ffffffffffffffffffffffffffffffffffffffff16815260200190815260200160002060008373ffffffffffffffffffffffffffffffffffffffff1673ffffffffffffffffffffffffffffffffffffffff16815260200190815260200160002060009054906101000a900460ff16905092915050565b60007f01ffc9a7000000000000000000000000000000000000000000000000000000007bffffffffffffffffffffffffffffffffffffffffffffffffffffffff1916827bffffffffffffffffffffffffffffffffffffffffffffffffffffffff1916149050919050565b610ece8161178a565b610f0d576040517f08c379a0000000000000000000000000000000000000000000000000000000008152600401610f0490612ae3565b60405180910390fd5b50565b600033905090565b816004600083815260200190815260200160002060006101000a81548173ffffffffffffffffffffffffffffffffffffffff021916908373ffffffffffffffffffffffffffffffffffffffff160217905550808273ffffffffffffffffffffffffffffffffffffffff16610f8b8361083b565b73ffffffffffffffffffffffffffffffffffffffff167f8c5be1e5ebec7d5bd14f71427d1e84f3dd0314c0f7b2291e5b200ac8c7c3b92560405160405180910390a45050565b3373ffffffffffffffffffffffffffffffffffffffff16600760019054906101000a900473ffffffffffffffffffffffffffffffffffffffff1673ffffffffffffffffffffffffffffffffffffffff1614611061576040517f08c379a000000000000000000000000000000000000000000000000000000000815260040161105890612d25565b60405180910390fd5b565b60008061106f8361083b565b90508073ffffffffffffffffffffffffffffffffffffffff168473ffffffffffffffffffffffffffffffffffffffff1614806110b157506110b08185610dc7565b5b806110ef57508373ffffffffffffffffffffffffffffffffffffffff166110d784610555565b73ffffffffffffffffffffffffffffffffffffffff16145b91505092915050565b8273ffffffffffffffffffffffffffffffffffffffff166111188261083b565b73ffffffffffffffffffffffffffffffffffffffff161461116e576040517f08c379a000000000000000000000000000000000000000000000000000000000815260040161116590612db7565b60405180910390fd5b600073ffffffffffffffffffffffffffffffffffffffff168273ffffffffffffffffffffffffffffffffffffffff16036111dd576040517f08c379a00000000000000000000000000000000000000000000000000000000081526004016111d490612e49565b60405180910390fd5b6111ea83838360016117cb565b8273ffffffffffffffffffffffffffffffffffffffff1661120a8261083b565b73ffffffffffffffffffffffffffffffffffffffff1614611260576040517f08c379a000000000000000000000000000000000000000000000000000000000815260040161125790612db7565b60405180910390fd5b6004600082815260200190815260200160002060006101000a81549073ffffffffffffffffffffffffffffffffffffffff02191690556001600360008573ffffffffffffffffffffffffffffffffffffffff1673ffffffffffffffffffffffffffffffffffffffff168152602001908152602001600020600082825403925050819055506001600360008473ffffffffffffffffffffffffffffffffffffffff1673ffffffffffffffffffffffffffffffffffffffff16815260200190815260200160002060008282540192505081905550816002600083815260200190815260200160002060006101000a81548173ffffffffffffffffffffffffffffffffffffffff021916908373ffffffffffffffffffffffffffffffffffffffff160217905550808273ffffffffffffffffffffffffffffffffffffffff168473ffffffffffffffffffffffffffffffffffffffff167fddf252ad1be2c89b69c2b068fc378daa952ba7f163c4a11628f55a4df523b3ef60405160405180910390a46113ec8383836001611843565b505050565b6113fa81611849565b600060066000838152602001908152602001600020805461141a9061280a565b905014611441576006600082815260200190815260200160002060006114409190611edf565b5b50565b3373ffffffffffffffffffffffffffffffffffffffff16600860009054906101000a900473ffffffffffffffffffffffffffffffffffffffff1673ffffffffffffffffffffffffffffffffffffffff16146114d4576040517f08c379a00000000000000000000000000000000000000000000000000000000081526004016114cb90612eb5565b60405180910390fd5b565b60006002600083815260200190815260200160002060009054906101000a900473ffffffffffffffffffffffffffffffffffffffff169050919050565b81600090816115229190613081565b5080600190816115329190613081565b505050565b8173ffffffffffffffffffffffffffffffffffffffff168373ffffffffffffffffffffffffffffffffffffffff16036115a5576040517f08c379a000000000000000000000000000000000000000000000000000000000815260040161159c9061319f565b60405180910390fd5b80600560008573ffffffffffffffffffffffffffffffffffffffff1673ffffffffffffffffffffffffffffffffffffffff16815260200190815260200160002060008473ffffffffffffffffffffffffffffffffffffffff1673ffffffffffffffffffffffffffffffffffffffff16815260200190815260200160002060006101000a81548160ff0219169083151502179055508173ffffffffffffffffffffffffffffffffffffffff168373ffffffffffffffffffffffffffffffffffffffff167f17307eab39ab6107e8899845ad3d59bd9653f200f220920489ca2b5937696c31836040516116969190611ff0565b60405180910390a3505050565b6116ae8484846110f8565b6116ba84848484611997565b6116f9576040517f08c379a00000000000000000000000000000000000000000000000000000000081526004016116f090613231565b60405180910390fd5b50505050565b611719828260405180602001604052806000815250611b1e565b5050565b6117268261178a565b611765576040517f08c379a000000000000000000000000000000000000000000000000000000000815260040161175c906132c3565b60405180910390fd5b806006600084815260200190815260200160002090816117859190613081565b505050565b60008073ffffffffffffffffffffffffffffffffffffffff166117ac836114d6565b73ffffffffffffffffffffffffffffffffffffffff1614159050919050565b6000600a600084815260200190815260200160002060009054906101000a900460ff1660ff1614611831576040517f08c379a00000000000000000000000000000000000000000000000000000000081526004016118289061332f565b60405180910390fd5b61183d84848484611b79565b50505050565b50505050565b60006118548261083b565b90506118648160008460016117cb565b61186d8261083b565b90506004600083815260200190815260200160002060006101000a81549073ffffffffffffffffffffffffffffffffffffffff02191690556001600360008373ffffffffffffffffffffffffffffffffffffffff1673ffffffffffffffffffffffffffffffffffffffff168152602001908152602001600020600082825403925050819055506002600083815260200190815260200160002060006101000a81549073ffffffffffffffffffffffffffffffffffffffff021916905581600073ffffffffffffffffffffffffffffffffffffffff168273ffffffffffffffffffffffffffffffffffffffff167fddf252ad1be2c89b69c2b068fc378daa952ba7f163c4a11628f55a4df523b3ef60405160405180910390a4611993816000846001611843565b5050565b60006119b88473ffffffffffffffffffffffffffffffffffffffff16611c9f565b15611b11578373ffffffffffffffffffffffffffffffffffffffff1663150b7a026119e1610f10565b8786866040518563ffffffff1660e01b8152600401611a0394939291906133a4565b6020604051808303816000875af1925050508015611a3f57506040513d601f19601f82011682018060405250810190611a3c9190613405565b60015b611ac1573d8060008114611a6f576040519150601f19603f3d011682016040523d82523d6000602084013e611a74565b606091505b506000815103611ab9576040517f08c379a0000000000000000000000000000000000000000000000000000000008152600401611ab090613231565b60405180910390fd5b805181602001fd5b63150b7a0260e01b7bffffffffffffffffffffffffffffffffffffffffffffffffffffffff1916817bffffffffffffffffffffffffffffffffffffffffffffffffffffffff191614915050611b16565b600190505b949350505050565b611b288383611cc2565b611b356000848484611997565b611b74576040517f08c379a0000000000000000000000000000000000000000000000000000000008152600401611b6b90613231565b60405180910390fd5b505050565b6001811115611c9957600073ffffffffffffffffffffffffffffffffffffffff168473ffffffffffffffffffffffffffffffffffffffff1614611c0d5780600360008673ffffffffffffffffffffffffffffffffffffffff1673ffffffffffffffffffffffffffffffffffffffff1681526020019081526020016000206000828254611c059190613432565b925050819055505b600073ffffffffffffffffffffffffffffffffffffffff168373ffffffffffffffffffffffffffffffffffffffff1614611c985780600360008573ffffffffffffffffffffffffffffffffffffffff1673ffffffffffffffffffffffffffffffffffffffff1681526020019081526020016000206000828254611c909190613466565b925050819055505b5b50505050565b6000808273ffffffffffffffffffffffffffffffffffffffff163b119050919050565b600073ffffffffffffffffffffffffffffffffffffffff168273ffffffffffffffffffffffffffffffffffffffff1603611d31576040517f08c379a0000000000000000000000000000000000000000000000000000000008152600401611d28906134e6565b60405180910390fd5b611d3a8161178a565b15611d7a576040517f08c379a0000000000000000000000000000000000000000000000000000000008152600401611d7190613552565b60405180910390fd5b611d886000838360016117cb565b611d918161178a565b15611dd1576040517f08c379a0000000000000000000000000000000000000000000000000000000008152600401611dc890613552565b60405180910390fd5b6001600360008473ffffffffffffffffffffffffffffffffffffffff1673ffffffffffffffffffffffffffffffffffffffff16815260200190815260200160002060008282540192505081905550816002600083815260200190815260200160002060006101000a81548173ffffffffffffffffffffffffffffffffffffffff021916908373ffffffffffffffffffffffffffffffffffffffff160217905550808273ffffffffffffffffffffffffffffffffffffffff16600073ffffffffffffffffffffffffffffffffffffffff167fddf252ad1be2c89b69c2b068fc378daa952ba7f163c4a11628f55a4df523b3ef60405160405180910390a4611edb600083836001611843565b5050565b508054611eeb9061280a565b6000825580601f10611efd5750611f1c565b601f016020900490600052602060002090810190611f1b9190611f1f565b5b50565b5b80821115611f38576000816000905550600101611f20565b5090565b6000604051905090565b600080fd5b600080fd5b60007fffffffff0000000000000000000000000000000000000000000000000000000082169050919050565b611f8581611f50565b8114611f9057600080fd5b50565b600081359050611fa281611f7c565b92915050565b600060208284031215611fbe57611fbd611f46565b5b6000611fcc84828501611f93565b91505092915050565b60008115159050919050565b611fea81611fd5565b82525050565b60006020820190506120056000830184611fe1565b92915050565b600081519050919050565b600082825260208201905092915050565b60005b8381101561204557808201518184015260208101905061202a565b60008484015250505050565b6000601f19601f8301169050919050565b600061206d8261200b565b6120778185612016565b9350612087818560208601612027565b61209081612051565b840191505092915050565b600060208201905081810360008301526120b58184612062565b905092915050565b6000819050919050565b6120d0816120bd565b81146120db57600080fd5b50565b6000813590506120ed816120c7565b92915050565b60006020828403121561210957612108611f46565b5b6000612117848285016120de565b91505092915050565b600073ffffffffffffffffffffffffffffffffffffffff82169050919050565b600061214b82612120565b9050919050565b61215b81612140565b82525050565b60006020820190506121766000830184612152565b92915050565b61218581612140565b811461219057600080fd5b50565b6000813590506121a28161217c565b92915050565b600080604083850312156121bf576121be611f46565b5b60006121cd85828601612193565b92505060206121de858286016120de565b9150509250929050565b6000602082840312156121fe576121fd611f46565b5b600061220c84828501612193565b91505092915050565b60008060006060848603121561222e5761222d611f46565b5b600061223c86828701612193565b935050602061224d86828701612193565b925050604061225e868287016120de565b9150509250925092565b600080fd5b7f4e487b7100000000000000000000000000000000000000000000000000000000600052604160045260246000fd5b6122a582612051565b810181811067ffffffffffffffff821117156122c4576122c361226d565b5b80604052505050565b60006122d7611f3c565b90506122e3828261229c565b919050565b600067ffffffffffffffff8211156123035761230261226d565b5b602082029050602081019050919050565b600080fd5b600061232c612327846122e8565b6122cd565b9050808382526020820190506020840283018581111561234f5761234e612314565b5b835b81811015612378578061236488826120de565b845260208401935050602081019050612351565b5050509392505050565b600082601f83011261239757612396612268565b5b81356123a7848260208601612319565b91505092915050565b600060ff82169050919050565b6123c6816123b0565b81146123d157600080fd5b50565b6000813590506123e3816123bd565b92915050565b60008060408385031215612400576123ff611f46565b5b600083013567ffffffffffffffff81111561241e5761241d611f4b565b5b61242a85828601612382565b925050602061243b858286016123d4565b9150509250929050565b61244e816120bd565b82525050565b60006020820190506124696000830184612445565b92915050565b600080fd5b600067ffffffffffffffff82111561248f5761248e61226d565b5b61249882612051565b9050602081019050919050565b82818337600083830152505050565b60006124c76124c284612474565b6122cd565b9050828152602081018484840111156124e3576124e261246f565b5b6124ee8482856124a5565b509392505050565b600082601f83011261250b5761250a612268565b5b813561251b8482602086016124b4565b91505092915050565b60008060006060848603121561253d5761253c611f46565b5b600061254b86828701612193565b935050602084013567ffffffffffffffff81111561256c5761256b611f4b565b5b612578868287016124f6565b925050604084013567ffffffffffffffff81111561259957612598611f4b565b5b6125a5868287016124f6565b9150509250925092565b6125b881611fd5565b81146125c357600080fd5b50565b6000813590506125d5816125af565b92915050565b600080604083850312156125f2576125f1611f46565b5b600061260085828601612193565b9250506020612611858286016125c6565b9150509250929050565b600067ffffffffffffffff8211156126365761263561226d565b5b61263f82612051565b9050602081019050919050565b600061265f61265a8461261b565b6122cd565b90508281526020810184848401111561267b5761267a61246f565b5b6126868482856124a5565b509392505050565b600082601f8301126126a3576126a2612268565b5b81356126b384826020860161264c565b91505092915050565b600080600080608085870312156126d6576126d5611f46565b5b60006126e487828801612193565b94505060206126f587828801612193565b9350506040612706878288016120de565b925050606085013567ffffffffffffffff81111561272757612726611f4b565b5b6127338782880161268e565b91505092959194509250565b6000806040838503121561275657612755611f46565b5b600061276485828601612193565b925050602083013567ffffffffffffffff81111561278557612784611f4b565b5b612791858286016124f6565b9150509250929050565b600080604083850312156127b2576127b1611f46565b5b60006127c085828601612193565b92505060206127d185828601612193565b9150509250929050565b7f4e487b7100000000000000000000000000000000000000000000000000000000600052602260045260246000fd5b6000600282049050600182168061282257607f821691505b602082108103612835576128346127db565b5b50919050565b7f4552433732313a20617070726f76616c20746f2063757272656e74206f776e6560008201527f7200000000000000000000000000000000000000000000000000000000000000602082015250565b6000612897602183612016565b91506128a28261283b565b604082019050919050565b600060208201905081810360008301526128c68161288a565b9050919050565b7f4552433732313a20617070726f76652063616c6c6572206973206e6f7420746f60008201527f6b656e206f776e6572206f7220617070726f76656420666f7220616c6c000000602082015250565b6000612929603d83612016565b9150612934826128cd565b604082019050919050565b600060208201905081810360008301526129588161291c565b9050919050565b7f4552433732313a2063616c6c6572206973206e6f7420746f6b656e206f776e6560008201527f72206f7220617070726f76656400000000000000000000000000000000000000602082015250565b60006129bb602d83612016565b91506129c68261295f565b604082019050919050565b600060208201905081810360008301526129ea816129ae565b9050919050565b7f4e487b7100000000000000000000000000000000000000000000000000000000600052603260045260246000fd5b7f4e487b7100000000000000000000000000000000000000000000000000000000600052601160045260246000fd5b6000612a5a826120bd565b91507fffffffffffffffffffffffffffffffffffffffffffffffffffffffffffffffff8203612a8c57612a8b612a20565b5b600182019050919050565b7f4552433732313a20696e76616c696420746f6b656e2049440000000000000000600082015250565b6000612acd601883612016565b9150612ad882612a97565b602082019050919050565b60006020820190508181036000830152612afc81612ac0565b9050919050565b7f4552433732313a2061646472657373207a65726f206973206e6f74206120766160008201527f6c6964206f776e65720000000000000000000000000000000000000000000000602082015250565b6000612b5f602983612016565b9150612b6a82612b03565b604082019050919050565b60006020820190508181036000830152612b8e81612b52565b9050919050565b7f4261736520436f6e747261637400000000000000000000000000000000000000600082015250565b6000612bcb600d83612016565b9150612bd682612b95565b602082019050919050565b60006020820190508181036000830152612bfa81612bbe565b9050919050565b7f416c726561647920696e697469616c697a656400000000000000000000000000600082015250565b6000612c37601383612016565b9150612c4282612c01565b602082019050919050565b60006020820190508181036000830152612c6681612c2a565b9050919050565b7f4973206e6f7420696e697469616c697a65640000000000000000000000000000600082015250565b6000612ca3601283612016565b9150612cae82612c6d565b602082019050919050565b60006020820190508181036000830152612cd281612c96565b9050919050565b7f4f6e6c794f776e65720000000000000000000000000000000000000000000000600082015250565b6000612d0f600983612016565b9150612d1a82612cd9565b602082019050919050565b60006020820190508181036000830152612d3e81612d02565b9050919050565b7f4552433732313a207472616e736665722066726f6d20696e636f72726563742060008201527f6f776e6572000000000000000000000000000000000000000000000000000000602082015250565b6000612da1602583612016565b9150612dac82612d45565b604082019050919050565b60006020820190508181036000830152612dd081612d94565b9050919050565b7f4552433732313a207472616e7366657220746f20746865207a65726f2061646460008201527f7265737300000000000000000000000000000000000000000000000000000000602082015250565b6000612e33602483612016565b9150612e3e82612dd7565b604082019050919050565b60006020820190508181036000830152612e6281612e26565b9050919050565b7f4f6e6c79466163746f7279000000000000000000000000000000000000000000600082015250565b6000612e9f600b83612016565b9150612eaa82612e69565b602082019050919050565b60006020820190508181036000830152612ece81612e92565b9050919050565b60008190508160005260206000209050919050565b60006020601f8301049050919050565b600082821b905092915050565b600060088302612f377fffffffffffffffffffffffffffffffffffffffffffffffffffffffffffffffff82612efa565b612f418683612efa565b95508019841693508086168417925050509392505050565b6000819050919050565b6000612f7e612f79612f74846120bd565b612f59565b6120bd565b9050919050565b6000819050919050565b612f9883612f63565b612fac612fa482612f85565b848454612f07565b825550505050565b600090565b612fc1612fb4565b612fcc818484612f8f565b505050565b5b81811015612ff057612fe5600082612fb9565b600181019050612fd2565b5050565b601f8211156130355761300681612ed5565b61300f84612eea565b8101602085101561301e578190505b61303261302a85612eea565b830182612fd1565b50505b505050565b600082821c905092915050565b60006130586000198460080261303a565b1980831691505092915050565b60006130718383613047565b9150826002028217905092915050565b61308a8261200b565b67ffffffffffffffff8111156130a3576130a261226d565b5b6130ad825461280a565b6130b8828285612ff4565b600060209050601f8311600181146130eb57600084156130d9578287015190505b6130e38582613065565b86555061314b565b601f1984166130f986612ed5565b60005b82811015613121578489015182556001820191506020850194506020810190506130fc565b8683101561313e578489015161313a601f891682613047565b8355505b6001600288020188555050505b505050505050565b7f4552433732313a20617070726f766520746f2063616c6c657200000000000000600082015250565b6000613189601983612016565b915061319482613153565b602082019050919050565b600060208201905081810360008301526131b88161317c565b9050919050565b7f4552433732313a207472616e7366657220746f206e6f6e20455243373231526560008201527f63656976657220696d706c656d656e7465720000000000000000000000000000602082015250565b600061321b603283612016565b9150613226826131bf565b604082019050919050565b6000602082019050818103600083015261324a8161320e565b9050919050565b7f45524337323155524953746f726167653a2055524920736574206f66206e6f6e60008201527f6578697374656e7420746f6b656e000000000000000000000000000000000000602082015250565b60006132ad602e83612016565b91506132b882613251565b604082019050919050565b600060208201905081810360008301526132dc816132a0565b9050919050565b7f4e4654206973206c6f636b656400000000000000000000000000000000000000600082015250565b6000613319600d83612016565b9150613324826132e3565b602082019050919050565b600060208201905081810360008301526133488161330c565b9050919050565b600081519050919050565b600082825260208201905092915050565b60006133768261334f565b613380818561335a565b9350613390818560208601612027565b61339981612051565b840191505092915050565b60006080820190506133b96000830187612152565b6133c66020830186612152565b6133d36040830185612445565b81810360608301526133e5818461336b565b905095945050505050565b6000815190506133ff81611f7c565b92915050565b60006020828403121561341b5761341a611f46565b5b6000613429848285016133f0565b91505092915050565b600061343d826120bd565b9150613448836120bd565b92508282039050818111156134605761345f612a20565b5b92915050565b6000613471826120bd565b915061347c836120bd565b925082820190508082111561349457613493612a20565b5b92915050565b7f4552433732313a206d696e7420746f20746865207a65726f2061646472657373600082015250565b60006134d0602083612016565b91506134db8261349a565b602082019050919050565b600060208201905081810360008301526134ff816134c3565b9050919050565b7f4552433732313a20746f6b656e20616c7265616479206d696e74656400000000600082015250565b600061353c601c83612016565b915061354782613506565b602082019050919050565b6000602082019050818103600083015261356b8161352f565b905091905056fea26469706673582212207773f8ac7453d9f669229a1360bb2759f152e453b7c269af01b922395d2f773364736f6c63430008110033",
  "linkReferences": {},
  "deployedLinkReferences": {}
}