{
  "_format": "hh-sol-artifact-1",
  "contractName": "DSDFactory",
  "sourceName": "contracts/DSDFactory.sol",
  "abi": [
    {
      "inputs": [
        {
          "internalType": "address",
          "name": "_base",
          "type": "address"
        }
      ],
      "stateMutability": "nonpayable",
      "type": "constructor"
    },
    {
      "anonymous": false,
      "inputs": [
        {
          "indexed": false,
          "internalType": "address",
          "name": "_newClone",
          "type": "address"
        },
        {
          "indexed": false,
          "internalType": "address",
          "name": "_owner",
          "type": "address"
        }
      ],
      "name": "DeployNFT",
      "type": "event"
    },
    {
      "anonymous": false,
      "inputs": [
        {
          "indexed": false,
          "internalType": "address",
          "name": "nftAddress",
          "type": "address"
        },
        {
          "indexed": false,
          "internalType": "uint256",
          "name": "id",
          "type": "uint256"
        }
      ],
      "name": "test",
      "type": "event"
    },
    {
      "inputs": [],
      "name": "baseContract",
      "outputs": [
        {
          "internalType": "address",
          "name": "",
          "type": "address"
        }
      ],
      "stateMutability": "view",
      "type": "function"
    },
    {
      "inputs": [
        {
          "internalType": "string",
          "name": "_name",
          "type": "string"
        },
        {
          "internalType": "string",
          "name": "_symbol",
          "type": "string"
        },
        {
          "internalType": "string",
          "name": "_uri",
          "type": "string"
        }
      ],
      "name": "deployNFT",
      "outputs": [],
      "stateMutability": "nonpayable",
      "type": "function"
    },
    {
      "inputs": [],
      "name": "isPaused",
      "outputs": [
        {
          "internalType": "uint256",
          "name": "",
          "type": "uint256"
        }
      ],
      "stateMutability": "view",
      "type": "function"
    },
    {
      "inputs": [
        {
          "internalType": "uint256",
          "name": "",
          "type": "uint256"
        }
      ],
      "name": "nfts",
      "outputs": [
        {
          "internalType": "address",
          "name": "creator",
          "type": "address"
        },
        {
          "internalType": "address",
          "name": "nftAddress",
          "type": "address"
        }
      ],
      "stateMutability": "view",
      "type": "function"
    },
    {
      "inputs": [],
      "name": "owner",
      "outputs": [
        {
          "internalType": "address",
          "name": "",
          "type": "address"
        }
      ],
      "stateMutability": "view",
      "type": "function"
    },
    {
      "inputs": [
        {
          "internalType": "address",
          "name": "_newAdd",
          "type": "address"
        }
      ],
      "name": "setBase",
      "outputs": [],
      "stateMutability": "nonpayable",
      "type": "function"
    },
    {
      "inputs": [
        {
          "internalType": "address",
          "name": "_newAdd",
          "type": "address"
        }
      ],
      "name": "setOwner",
      "outputs": [],
      "stateMutability": "nonpayable",
      "type": "function"
    },
    {
      "inputs": [],
      "name": "setPaused",
      "outputs": [],
      "stateMutability": "nonpayable",
      "type": "function"
    }
  ],
  "bytecode": "0x608060405234801561001057600080fd5b50604051610e2a380380610e2a83398181016040528101906100329190610124565b336000806101000a81548173ffffffffffffffffffffffffffffffffffffffff021916908373ffffffffffffffffffffffffffffffffffffffff16021790555080600160006101000a81548173ffffffffffffffffffffffffffffffffffffffff021916908373ffffffffffffffffffffffffffffffffffffffff160217905550600060028190555050610151565b600080fd5b600073ffffffffffffffffffffffffffffffffffffffff82169050919050565b60006100f1826100c6565b9050919050565b610101816100e6565b811461010c57600080fd5b50565b60008151905061011e816100f8565b92915050565b60006020828403121561013a576101396100c1565b5b60006101488482850161010f565b91505092915050565b610cca806101606000396000f3fe608060405234801561001057600080fd5b50600436106100885760003560e01c80637309fe221161005b5780637309fe22146101025780638da5cb5b1461011e578063b187bd261461013c578063be17fe621461015a57610088565b806313af40351461008d578063265aa621146100a957806337a66d85146100da5780635b32619c146100e4575b600080fd5b6100a760048036038101906100a29190610706565b610176565b005b6100c360048036038101906100be9190610769565b6101c1565b6040516100d19291906107a5565b60405180910390f35b6100e2610225565b005b6100ec61026d565b6040516100f991906107ce565b60405180910390f35b61011c6004803603810190610117919061092f565b610293565b005b6101266104c0565b60405161013391906107ce565b60405180910390f35b6101446104e4565b60405161015191906109e5565b60405180910390f35b610174600480360381019061016f9190610706565b6104fe565b005b61017e61054a565b806000806101000a81548173ffffffffffffffffffffffffffffffffffffffff021916908373ffffffffffffffffffffffffffffffffffffffff16021790555050565b60036020528060005260406000206000915090508060000160009054906101000a900473ffffffffffffffffffffffffffffffffffffffff16908060010160009054906101000a900473ffffffffffffffffffffffffffffffffffffffff16905082565b61022d61054a565b6000600160149054906101000a900460ff1660ff161461024e576000610251565b60015b600160146101000a81548160ff021916908360ff160217905550565b600160009054906101000a900473ffffffffffffffffffffffffffffffffffffffff1681565b6000600160149054906101000a900460ff1660ff16146102e8576040517f08c379a00000000000000000000000000000000000000000000000000000000081526004016102df90610a5d565b60405180910390fd5b6000610315600160009054906101000a900473ffffffffffffffffffffffffffffffffffffffff166105da565b905060405180604001604052803373ffffffffffffffffffffffffffffffffffffffff1681526020018273ffffffffffffffffffffffffffffffffffffffff168152506003600060026000815461036b90610aac565b919050819055815260200190815260200160002060008201518160000160006101000a81548173ffffffffffffffffffffffffffffffffffffffff021916908373ffffffffffffffffffffffffffffffffffffffff16021790555060208201518160010160006101000a81548173ffffffffffffffffffffffffffffffffffffffff021916908373ffffffffffffffffffffffffffffffffffffffff1602179055509050508073ffffffffffffffffffffffffffffffffffffffff16635f1e6f6d338686866040518563ffffffff1660e01b815260040161044f9493929190610b62565b600060405180830381600087803b15801561046957600080fd5b505af115801561047d573d6000803e3d6000fd5b505050507f8abf7cfa8fefb4d85e1fee7597b1e9a2c02eb2d678393fc13f20fd3175cb629281336040516104b29291906107a5565b60405180910390a150505050565b60008054906101000a900473ffffffffffffffffffffffffffffffffffffffff1681565b6000600160149054906101000a900460ff1660ff16905090565b61050661054a565b80600160006101000a81548173ffffffffffffffffffffffffffffffffffffffff021916908373ffffffffffffffffffffffffffffffffffffffff16021790555050565b3373ffffffffffffffffffffffffffffffffffffffff1660008054906101000a900473ffffffffffffffffffffffffffffffffffffffff1673ffffffffffffffffffffffffffffffffffffffff16146105d8576040517f08c379a00000000000000000000000000000000000000000000000000000000081526004016105cf90610c08565b60405180910390fd5b565b6000763d602d80600a3d3981f3363d3d373d3d3d363d730000008260601b60e81c176000526e5af43d82803e903d91602b57fd5bf38260781b17602052603760096000f09050600073ffffffffffffffffffffffffffffffffffffffff168173ffffffffffffffffffffffffffffffffffffffff160361068f576040517f08c379a000000000000000000000000000000000000000000000000000000000815260040161068690610c74565b60405180910390fd5b919050565b6000604051905090565b600080fd5b600080fd5b600073ffffffffffffffffffffffffffffffffffffffff82169050919050565b60006106d3826106a8565b9050919050565b6106e3816106c8565b81146106ee57600080fd5b50565b600081359050610700816106da565b92915050565b60006020828403121561071c5761071b61069e565b5b600061072a848285016106f1565b91505092915050565b6000819050919050565b61074681610733565b811461075157600080fd5b50565b6000813590506107638161073d565b92915050565b60006020828403121561077f5761077e61069e565b5b600061078d84828501610754565b91505092915050565b61079f816106c8565b82525050565b60006040820190506107ba6000830185610796565b6107c76020830184610796565b9392505050565b60006020820190506107e36000830184610796565b92915050565b600080fd5b600080fd5b6000601f19601f8301169050919050565b7f4e487b7100000000000000000000000000000000000000000000000000000000600052604160045260246000fd5b61083c826107f3565b810181811067ffffffffffffffff8211171561085b5761085a610804565b5b80604052505050565b600061086e610694565b905061087a8282610833565b919050565b600067ffffffffffffffff82111561089a57610899610804565b5b6108a3826107f3565b9050602081019050919050565b82818337600083830152505050565b60006108d26108cd8461087f565b610864565b9050828152602081018484840111156108ee576108ed6107ee565b5b6108f98482856108b0565b509392505050565b600082601f830112610916576109156107e9565b5b81356109268482602086016108bf565b91505092915050565b6000806000606084860312156109485761094761069e565b5b600084013567ffffffffffffffff811115610966576109656106a3565b5b61097286828701610901565b935050602084013567ffffffffffffffff811115610993576109926106a3565b5b61099f86828701610901565b925050604084013567ffffffffffffffff8111156109c0576109bf6106a3565b5b6109cc86828701610901565b9150509250925092565b6109df81610733565b82525050565b60006020820190506109fa60008301846109d6565b92915050565b600082825260208201905092915050565b7f436f6e7472616374206973207061757365640000000000000000000000000000600082015250565b6000610a47601283610a00565b9150610a5282610a11565b602082019050919050565b60006020820190508181036000830152610a7681610a3a565b9050919050565b7f4e487b7100000000000000000000000000000000000000000000000000000000600052601160045260246000fd5b6000610ab782610733565b91507fffffffffffffffffffffffffffffffffffffffffffffffffffffffffffffffff8203610ae957610ae8610a7d565b5b600182019050919050565b600081519050919050565b60005b83811015610b1d578082015181840152602081019050610b02565b60008484015250505050565b6000610b3482610af4565b610b3e8185610a00565b9350610b4e818560208601610aff565b610b57816107f3565b840191505092915050565b6000608082019050610b776000830187610796565b8181036020830152610b898186610b29565b90508181036040830152610b9d8185610b29565b90508181036060830152610bb18184610b29565b905095945050505050565b7f4e6f74204f776e65720000000000000000000000000000000000000000000000600082015250565b6000610bf2600983610a00565b9150610bfd82610bbc565b602082019050919050565b60006020820190508181036000830152610c2181610be5565b9050919050565b7f455243313136373a20637265617465206661696c656400000000000000000000600082015250565b6000610c5e601683610a00565b9150610c6982610c28565b602082019050919050565b60006020820190508181036000830152610c8d81610c51565b905091905056fea2646970667358221220489f1d146b962469f067de29ef4eba0a89756b5b255770da0eae6c2789c4e7fb64736f6c63430008110033",
  "linkReferences": {},
  "deployedLinkReferences": {}
}