{
  "_format": "hh-sol-artifact-1",
  "contractName": "DSDFactory",
  "sourceName": "contracts/DSDFactory.sol",
  "abi": [
    {
      "inputs": [
        {
          "internalType": "address",
          "name": "_base",
          "type": "address"
        }
      ],
      "stateMutability": "nonpayable",
      "type": "constructor"
    },
    {
      "anonymous": false,
      "inputs": [
        {
          "indexed": false,
          "internalType": "address",
          "name": "_newClone",
          "type": "address"
        },
        {
          "indexed": false,
          "internalType": "address",
          "name": "_owner",
          "type": "address"
        }
      ],
      "name": "DeployNFT",
      "type": "event"
    },
    {
      "anonymous": false,
      "inputs": [
        {
          "indexed": false,
          "internalType": "address",
          "name": "nftAddress",
          "type": "address"
        },
        {
          "indexed": false,
          "internalType": "uint256",
          "name": "id",
          "type": "uint256"
        }
      ],
      "name": "test",
      "type": "event"
    },
    {
      "inputs": [],
      "name": "baseContract",
      "outputs": [
        {
          "internalType": "address",
          "name": "",
          "type": "address"
        }
      ],
      "stateMutability": "view",
      "type": "function"
    },
    {
      "inputs": [
        {
          "internalType": "string",
          "name": "_name",
          "type": "string"
        },
        {
          "internalType": "string",
          "name": "_symbol",
          "type": "string"
        }
      ],
      "name": "deployNFT",
      "outputs": [],
      "stateMutability": "nonpayable",
      "type": "function"
    },
    {
      "inputs": [],
      "name": "isPaused",
      "outputs": [
        {
          "internalType": "uint256",
          "name": "",
          "type": "uint256"
        }
      ],
      "stateMutability": "view",
      "type": "function"
    },
    {
      "inputs": [
        {
          "internalType": "uint256",
          "name": "",
          "type": "uint256"
        }
      ],
      "name": "nfts",
      "outputs": [
        {
          "internalType": "address",
          "name": "creator",
          "type": "address"
        },
        {
          "internalType": "address",
          "name": "nftAddress",
          "type": "address"
        }
      ],
      "stateMutability": "view",
      "type": "function"
    },
    {
      "inputs": [],
      "name": "owner",
      "outputs": [
        {
          "internalType": "address",
          "name": "",
          "type": "address"
        }
      ],
      "stateMutability": "view",
      "type": "function"
    },
    {
      "inputs": [
        {
          "internalType": "address",
          "name": "_newAdd",
          "type": "address"
        }
      ],
      "name": "setBase",
      "outputs": [],
      "stateMutability": "nonpayable",
      "type": "function"
    },
    {
      "inputs": [
        {
          "internalType": "address",
          "name": "_newAdd",
          "type": "address"
        }
      ],
      "name": "setOwner",
      "outputs": [],
      "stateMutability": "nonpayable",
      "type": "function"
    },
    {
      "inputs": [],
      "name": "setPaused",
      "outputs": [],
      "stateMutability": "nonpayable",
      "type": "function"
    }
  ],
  "bytecode": "0x608060405234801561001057600080fd5b50604051610de3380380610de383398181016040528101906100329190610124565b336000806101000a81548173ffffffffffffffffffffffffffffffffffffffff021916908373ffffffffffffffffffffffffffffffffffffffff16021790555080600160006101000a81548173ffffffffffffffffffffffffffffffffffffffff021916908373ffffffffffffffffffffffffffffffffffffffff160217905550600060028190555050610151565b600080fd5b600073ffffffffffffffffffffffffffffffffffffffff82169050919050565b60006100f1826100c6565b9050919050565b610101816100e6565b811461010c57600080fd5b50565b60008151905061011e816100f8565b92915050565b60006020828403121561013a576101396100c1565b5b60006101488482850161010f565b91505092915050565b610c83806101606000396000f3fe608060405234801561001057600080fd5b50600436106100885760003560e01c80635b32619c1161005b5780635b32619c146101005780638da5cb5b1461011e578063b187bd261461013c578063be17fe621461015a57610088565b806313af40351461008d578063265aa621146100a957806337a66d85146100da57806354d582af146100e4575b600080fd5b6100a760048036038101906100a29190610703565b610176565b005b6100c360048036038101906100be9190610766565b6101c1565b6040516100d19291906107a2565b60405180910390f35b6100e2610225565b005b6100fe60048036038101906100f99190610911565b61026d565b005b610108610497565b6040516101159190610989565b60405180910390f35b6101266104bd565b6040516101339190610989565b60405180910390f35b6101446104e1565b60405161015191906109b3565b60405180910390f35b610174600480360381019061016f9190610703565b6104fb565b005b61017e610547565b806000806101000a81548173ffffffffffffffffffffffffffffffffffffffff021916908373ffffffffffffffffffffffffffffffffffffffff16021790555050565b60036020528060005260406000206000915090508060000160009054906101000a900473ffffffffffffffffffffffffffffffffffffffff16908060010160009054906101000a900473ffffffffffffffffffffffffffffffffffffffff16905082565b61022d610547565b6000600160149054906101000a900460ff1660ff161461024e576000610251565b60015b600160146101000a81548160ff021916908360ff160217905550565b6000600160149054906101000a900460ff1660ff16146102c2576040517f08c379a00000000000000000000000000000000000000000000000000000000081526004016102b990610a2b565b60405180910390fd5b60006102ef600160009054906101000a900473ffffffffffffffffffffffffffffffffffffffff166105d7565b905060405180604001604052803373ffffffffffffffffffffffffffffffffffffffff1681526020018273ffffffffffffffffffffffffffffffffffffffff168152506003600060026000815461034590610a7a565b919050819055815260200190815260200160002060008201518160000160006101000a81548173ffffffffffffffffffffffffffffffffffffffff021916908373ffffffffffffffffffffffffffffffffffffffff16021790555060208201518160010160006101000a81548173ffffffffffffffffffffffffffffffffffffffff021916908373ffffffffffffffffffffffffffffffffffffffff1602179055509050508073ffffffffffffffffffffffffffffffffffffffff1663906571473385856040518463ffffffff1660e01b815260040161042793929190610b30565b600060405180830381600087803b15801561044157600080fd5b505af1158015610455573d6000803e3d6000fd5b505050507f8abf7cfa8fefb4d85e1fee7597b1e9a2c02eb2d678393fc13f20fd3175cb6292813360405161048a9291906107a2565b60405180910390a1505050565b600160009054906101000a900473ffffffffffffffffffffffffffffffffffffffff1681565b60008054906101000a900473ffffffffffffffffffffffffffffffffffffffff1681565b6000600160149054906101000a900460ff1660ff16905090565b610503610547565b80600160006101000a81548173ffffffffffffffffffffffffffffffffffffffff021916908373ffffffffffffffffffffffffffffffffffffffff16021790555050565b3373ffffffffffffffffffffffffffffffffffffffff1660008054906101000a900473ffffffffffffffffffffffffffffffffffffffff1673ffffffffffffffffffffffffffffffffffffffff16146105d5576040517f08c379a00000000000000000000000000000000000000000000000000000000081526004016105cc90610bc1565b60405180910390fd5b565b6000763d602d80600a3d3981f3363d3d373d3d3d363d730000008260601b60e81c176000526e5af43d82803e903d91602b57fd5bf38260781b17602052603760096000f09050600073ffffffffffffffffffffffffffffffffffffffff168173ffffffffffffffffffffffffffffffffffffffff160361068c576040517f08c379a000000000000000000000000000000000000000000000000000000000815260040161068390610c2d565b60405180910390fd5b919050565b6000604051905090565b600080fd5b600080fd5b600073ffffffffffffffffffffffffffffffffffffffff82169050919050565b60006106d0826106a5565b9050919050565b6106e0816106c5565b81146106eb57600080fd5b50565b6000813590506106fd816106d7565b92915050565b6000602082840312156107195761071861069b565b5b6000610727848285016106ee565b91505092915050565b6000819050919050565b61074381610730565b811461074e57600080fd5b50565b6000813590506107608161073a565b92915050565b60006020828403121561077c5761077b61069b565b5b600061078a84828501610751565b91505092915050565b61079c816106c5565b82525050565b60006040820190506107b76000830185610793565b6107c46020830184610793565b9392505050565b600080fd5b600080fd5b6000601f19601f8301169050919050565b7f4e487b7100000000000000000000000000000000000000000000000000000000600052604160045260246000fd5b61081e826107d5565b810181811067ffffffffffffffff8211171561083d5761083c6107e6565b5b80604052505050565b6000610850610691565b905061085c8282610815565b919050565b600067ffffffffffffffff82111561087c5761087b6107e6565b5b610885826107d5565b9050602081019050919050565b82818337600083830152505050565b60006108b46108af84610861565b610846565b9050828152602081018484840111156108d0576108cf6107d0565b5b6108db848285610892565b509392505050565b600082601f8301126108f8576108f76107cb565b5b81356109088482602086016108a1565b91505092915050565b600080604083850312156109285761092761069b565b5b600083013567ffffffffffffffff811115610946576109456106a0565b5b610952858286016108e3565b925050602083013567ffffffffffffffff811115610973576109726106a0565b5b61097f858286016108e3565b9150509250929050565b600060208201905061099e6000830184610793565b92915050565b6109ad81610730565b82525050565b60006020820190506109c860008301846109a4565b92915050565b600082825260208201905092915050565b7f436f6e7472616374206973207061757365640000000000000000000000000000600082015250565b6000610a156012836109ce565b9150610a20826109df565b602082019050919050565b60006020820190508181036000830152610a4481610a08565b9050919050565b7f4e487b7100000000000000000000000000000000000000000000000000000000600052601160045260246000fd5b6000610a8582610730565b91507fffffffffffffffffffffffffffffffffffffffffffffffffffffffffffffffff8203610ab757610ab6610a4b565b5b600182019050919050565b600081519050919050565b60005b83811015610aeb578082015181840152602081019050610ad0565b60008484015250505050565b6000610b0282610ac2565b610b0c81856109ce565b9350610b1c818560208601610acd565b610b25816107d5565b840191505092915050565b6000606082019050610b456000830186610793565b8181036020830152610b578185610af7565b90508181036040830152610b6b8184610af7565b9050949350505050565b7f4e6f74204f776e65720000000000000000000000000000000000000000000000600082015250565b6000610bab6009836109ce565b9150610bb682610b75565b602082019050919050565b60006020820190508181036000830152610bda81610b9e565b9050919050565b7f455243313136373a20637265617465206661696c656400000000000000000000600082015250565b6000610c176016836109ce565b9150610c2282610be1565b602082019050919050565b60006020820190508181036000830152610c4681610c0a565b905091905056fea2646970667358221220bec1345cc29140bd0b225a1ed35d87dd1f440940e23b190d9e8237c4b298bd8c64736f6c63430008110033",
  "linkReferences": {},
  "deployedLinkReferences": {}
}